{
  "address": "0x8D84f943DA5c04e1ca18122d88c3F83cdda88f4A",
  "abi": [
    {
      "inputs": [
        {
          "internalType": "string[]",
          "name": "tokenURIs",
          "type": "string[]"
        }
      ],
      "stateMutability": "nonpayable",
      "type": "constructor"
    },
    {
      "inputs": [
        {
          "internalType": "address",
          "name": "sender",
          "type": "address"
        },
        {
          "internalType": "uint256",
          "name": "tokenId",
          "type": "uint256"
        },
        {
          "internalType": "address",
          "name": "owner",
          "type": "address"
        }
      ],
      "name": "ERC721IncorrectOwner",
      "type": "error"
    },
    {
      "inputs": [
        {
          "internalType": "address",
          "name": "operator",
          "type": "address"
        },
        {
          "internalType": "uint256",
          "name": "tokenId",
          "type": "uint256"
        }
      ],
      "name": "ERC721InsufficientApproval",
      "type": "error"
    },
    {
      "inputs": [
        {
          "internalType": "address",
          "name": "approver",
          "type": "address"
        }
      ],
      "name": "ERC721InvalidApprover",
      "type": "error"
    },
    {
      "inputs": [
        {
          "internalType": "address",
          "name": "operator",
          "type": "address"
        }
      ],
      "name": "ERC721InvalidOperator",
      "type": "error"
    },
    {
      "inputs": [
        {
          "internalType": "address",
          "name": "owner",
          "type": "address"
        }
      ],
      "name": "ERC721InvalidOwner",
      "type": "error"
    },
    {
      "inputs": [
        {
          "internalType": "address",
          "name": "receiver",
          "type": "address"
        }
      ],
      "name": "ERC721InvalidReceiver",
      "type": "error"
    },
    {
      "inputs": [
        {
          "internalType": "address",
          "name": "sender",
          "type": "address"
        }
      ],
      "name": "ERC721InvalidSender",
      "type": "error"
    },
    {
      "inputs": [
        {
          "internalType": "uint256",
          "name": "tokenId",
          "type": "uint256"
        }
      ],
      "name": "ERC721NonexistentToken",
      "type": "error"
    },
    {
      "inputs": [
        {
          "internalType": "address",
          "name": "owner",
          "type": "address"
        }
      ],
      "name": "OwnableInvalidOwner",
      "type": "error"
    },
    {
      "inputs": [
        {
          "internalType": "address",
          "name": "account",
          "type": "address"
        }
      ],
      "name": "OwnableUnauthorizedAccount",
      "type": "error"
    },
    {
      "anonymous": false,
      "inputs": [
        {
          "indexed": true,
          "internalType": "address",
          "name": "owner",
          "type": "address"
        },
        {
          "indexed": true,
          "internalType": "address",
          "name": "approved",
          "type": "address"
        },
        {
          "indexed": true,
          "internalType": "uint256",
          "name": "tokenId",
          "type": "uint256"
        }
      ],
      "name": "Approval",
      "type": "event"
    },
    {
      "anonymous": false,
      "inputs": [
        {
          "indexed": true,
          "internalType": "address",
          "name": "owner",
          "type": "address"
        },
        {
          "indexed": true,
          "internalType": "address",
          "name": "operator",
          "type": "address"
        },
        {
          "indexed": false,
          "internalType": "bool",
          "name": "approved",
          "type": "bool"
        }
      ],
      "name": "ApprovalForAll",
      "type": "event"
    },
    {
      "anonymous": false,
      "inputs": [
        {
          "indexed": false,
          "internalType": "uint256",
          "name": "_fromTokenId",
          "type": "uint256"
        },
        {
          "indexed": false,
          "internalType": "uint256",
          "name": "_toTokenId",
          "type": "uint256"
        }
      ],
      "name": "BatchMetadataUpdate",
      "type": "event"
    },
    {
      "anonymous": false,
      "inputs": [
        {
          "indexed": false,
          "internalType": "uint256",
          "name": "_tokenId",
          "type": "uint256"
        }
      ],
      "name": "MetadataUpdate",
      "type": "event"
    },
    {
      "anonymous": false,
      "inputs": [
        {
          "indexed": true,
          "internalType": "address",
          "name": "addr",
          "type": "address"
        },
        {
          "indexed": false,
          "internalType": "string",
          "name": "message",
          "type": "string"
        }
      ],
      "name": "NewAllowedFrom",
      "type": "event"
    },
    {
      "anonymous": false,
      "inputs": [
        {
          "indexed": true,
          "internalType": "address",
          "name": "addr",
          "type": "address"
        },
        {
          "indexed": false,
          "internalType": "string",
          "name": "message",
          "type": "string"
        }
      ],
      "name": "NewAllowedTo",
      "type": "event"
    },
    {
      "anonymous": false,
      "inputs": [
        {
          "indexed": true,
          "internalType": "address",
          "name": "previousOwner",
          "type": "address"
        },
        {
          "indexed": true,
          "internalType": "address",
          "name": "newOwner",
          "type": "address"
        }
      ],
      "name": "OwnershipTransferred",
      "type": "event"
    },
    {
      "anonymous": false,
      "inputs": [
        {
          "indexed": true,
          "internalType": "address",
          "name": "from",
          "type": "address"
        },
        {
          "indexed": true,
          "internalType": "address",
          "name": "to",
          "type": "address"
        },
        {
          "indexed": true,
          "internalType": "uint256",
          "name": "tokenId",
          "type": "uint256"
        }
      ],
      "name": "Transfer",
      "type": "event"
    },
    {
      "inputs": [
        {
          "internalType": "address",
          "name": "newOne",
          "type": "address"
        },
        {
          "internalType": "string",
          "name": "message",
          "type": "string"
        }
      ],
      "name": "addAllowedFrom",
      "outputs": [],
      "stateMutability": "nonpayable",
      "type": "function"
    },
    {
      "inputs": [
        {
          "internalType": "address",
          "name": "newOne",
          "type": "address"
        },
        {
          "internalType": "string",
          "name": "message",
          "type": "string"
        }
      ],
      "name": "addAllowedTo",
      "outputs": [],
      "stateMutability": "nonpayable",
      "type": "function"
    },
    {
      "inputs": [
        {
          "internalType": "address",
          "name": "to",
          "type": "address"
        },
        {
          "internalType": "uint256",
          "name": "tokenId",
          "type": "uint256"
        }
      ],
      "name": "approve",
      "outputs": [],
      "stateMutability": "nonpayable",
      "type": "function"
    },
    {
      "inputs": [
        {
          "internalType": "address",
          "name": "owner",
          "type": "address"
        }
      ],
      "name": "balanceOf",
      "outputs": [
        {
          "internalType": "uint256",
          "name": "",
          "type": "uint256"
        }
      ],
      "stateMutability": "view",
      "type": "function"
    },
    {
      "inputs": [],
      "name": "firstTokenId",
      "outputs": [
        {
          "internalType": "uint8",
          "name": "",
          "type": "uint8"
        }
      ],
      "stateMutability": "pure",
      "type": "function"
    },
    {
      "inputs": [
        {
          "internalType": "uint256",
          "name": "tokenId",
          "type": "uint256"
        }
      ],
      "name": "getApproved",
      "outputs": [
        {
          "internalType": "address",
          "name": "",
          "type": "address"
        }
      ],
      "stateMutability": "view",
      "type": "function"
    },
    {
      "inputs": [
        {
          "internalType": "address",
          "name": "owner",
          "type": "address"
        },
        {
          "internalType": "address",
          "name": "operator",
          "type": "address"
        }
      ],
      "name": "isApprovedForAll",
      "outputs": [
        {
          "internalType": "bool",
          "name": "",
          "type": "bool"
        }
      ],
      "stateMutability": "view",
      "type": "function"
    },
    {
      "inputs": [],
      "name": "lastTokenId",
      "outputs": [
        {
          "internalType": "uint256",
          "name": "",
          "type": "uint256"
        }
      ],
      "stateMutability": "view",
      "type": "function"
    },
    {
      "inputs": [
        {
          "internalType": "address",
          "name": "recipient",
          "type": "address"
        },
        {
          "internalType": "string",
          "name": "tokenURI",
          "type": "string"
        }
      ],
      "name": "mintNFT",
      "outputs": [
        {
          "internalType": "uint256",
          "name": "",
          "type": "uint256"
        }
      ],
      "stateMutability": "nonpayable",
      "type": "function"
    },
    {
      "inputs": [],
      "name": "name",
      "outputs": [
        {
          "internalType": "string",
          "name": "",
          "type": "string"
        }
      ],
      "stateMutability": "view",
      "type": "function"
    },
    {
      "inputs": [],
      "name": "owner",
      "outputs": [
        {
          "internalType": "address",
          "name": "",
          "type": "address"
        }
      ],
      "stateMutability": "view",
      "type": "function"
    },
    {
      "inputs": [
        {
          "internalType": "uint256",
          "name": "tokenId",
          "type": "uint256"
        }
      ],
      "name": "ownerOf",
      "outputs": [
        {
          "internalType": "address",
          "name": "",
          "type": "address"
        }
      ],
      "stateMutability": "view",
      "type": "function"
    },
    {
      "inputs": [
        {
          "internalType": "address",
          "name": "toRemove",
          "type": "address"
        }
      ],
      "name": "removeAllowedFrom",
      "outputs": [],
      "stateMutability": "nonpayable",
      "type": "function"
    },
    {
      "inputs": [
        {
          "internalType": "address",
          "name": "toRemove",
          "type": "address"
        }
      ],
      "name": "removeAllowedTo",
      "outputs": [],
      "stateMutability": "nonpayable",
      "type": "function"
    },
    {
      "inputs": [],
      "name": "renounceOwnership",
      "outputs": [],
      "stateMutability": "nonpayable",
      "type": "function"
    },
    {
      "inputs": [
        {
          "internalType": "address",
          "name": "from",
          "type": "address"
        },
        {
          "internalType": "address",
          "name": "to",
          "type": "address"
        },
        {
          "internalType": "uint256",
          "name": "tokenId",
          "type": "uint256"
        }
      ],
      "name": "safeTransferFrom",
      "outputs": [],
      "stateMutability": "nonpayable",
      "type": "function"
    },
    {
      "inputs": [
        {
          "internalType": "address",
          "name": "from",
          "type": "address"
        },
        {
          "internalType": "address",
          "name": "to",
          "type": "address"
        },
        {
          "internalType": "uint256",
          "name": "tokenId",
          "type": "uint256"
        },
        {
          "internalType": "bytes",
          "name": "data",
          "type": "bytes"
        }
      ],
      "name": "safeTransferFrom",
      "outputs": [],
      "stateMutability": "nonpayable",
      "type": "function"
    },
    {
      "inputs": [
        {
          "internalType": "address",
          "name": "operator",
          "type": "address"
        },
        {
          "internalType": "bool",
          "name": "approved",
          "type": "bool"
        }
      ],
      "name": "setApprovalForAll",
      "outputs": [],
      "stateMutability": "nonpayable",
      "type": "function"
    },
    {
      "inputs": [
        {
          "internalType": "bytes4",
          "name": "interfaceId",
          "type": "bytes4"
        }
      ],
      "name": "supportsInterface",
      "outputs": [
        {
          "internalType": "bool",
          "name": "",
          "type": "bool"
        }
      ],
      "stateMutability": "view",
      "type": "function"
    },
    {
      "inputs": [],
      "name": "symbol",
      "outputs": [
        {
          "internalType": "string",
          "name": "",
          "type": "string"
        }
      ],
      "stateMutability": "view",
      "type": "function"
    },
    {
      "inputs": [
        {
          "internalType": "uint256",
          "name": "tokenId",
          "type": "uint256"
        }
      ],
      "name": "tokenURI",
      "outputs": [
        {
          "internalType": "string",
          "name": "",
          "type": "string"
        }
      ],
      "stateMutability": "view",
      "type": "function"
    },
    {
      "inputs": [
        {
          "internalType": "address",
          "name": "from",
          "type": "address"
        },
        {
          "internalType": "address",
          "name": "to",
          "type": "address"
        },
        {
          "internalType": "uint256",
          "name": "tokenId",
          "type": "uint256"
        }
      ],
      "name": "transferFrom",
      "outputs": [],
      "stateMutability": "nonpayable",
      "type": "function"
    },
    {
      "inputs": [
        {
          "internalType": "address",
          "name": "newOwner",
          "type": "address"
        }
      ],
      "name": "transferOwnership",
      "outputs": [],
      "stateMutability": "nonpayable",
      "type": "function"
    }
  ],
  "transactionHash": "0xb033c5b0dbfb34c9d55f118f835cae444f50efc4628a4c77cde911c29a0ef863",
  "args": [
    [
      "https://ipfs.io/ipfs/QmZPZwoAumeDWXou8uXRg2NvDANV92rXWf4BoW4wAcYGoB"
    ]
  ],
  "numDeployments": 1,
  "solcInputHash": "6fe42e26bdf2d56371046e17d4ab92b7",
  "bytecode": "0x60806040523480156200001157600080fd5b50604051620023af380380620023af83398101604081905262000034916200079d565b3360405180604001604052806005815260200164139bdb585960da1b81525060405180604001604052806004815260200163139bd19560e21b81525081600090816200008191906200096f565b5060016200009082826200096f565b5050506001600160a01b038116620000c357604051631e4fbdf760e01b8152600060048201526024015b60405180910390fd5b620000ce8162000189565b5060008080527fec8156718a8372b1db44bb411437d0870f3e3790d4a08526d024ce1b0b668f6b8054600160ff199182168117909255600a6020527f13da86008ba1c6922daee3e07db95305ef49ebced9f5467a0b8613fcc6b343e3805490911690911790555b815181101562000181576200016d3383838151811062000159576200015962000a3b565b6020026020010151620001db60201b60201c565b50620001798162000a51565b905062000135565b505062000a79565b600780546001600160a01b038381166001600160a01b0319831681179093556040519116919082907f8be0079c531659141344cd1fd0a4f28419497f9722a3daafe3b4186f6b6457e090600090a35050565b6000620001e762000220565b60088054906000620001f98362000a51565b90915550506008546200020d848262000251565b620002198184620002c0565b9392505050565b6007546001600160a01b031633146200024f5760405163118cdaa760e01b8152336004820152602401620000ba565b565b6001600160a01b0382166200027d57604051633250574960e11b815260006004820152602401620000ba565b60006200028c83838362000312565b90506001600160a01b03811615620002bb576040516339e3563760e11b815260006004820152602401620000ba565b505050565b6000828152600660205260409020620002da82826200096f565b506040518281527ff8e1a15aba9398e019f0b49df1a4fde98ee17ae345cb5f6b5e2c27f5033e8ce79060200160405180910390a15050565b6001600160a01b03831660009081526009602052604081205460ff16806200035257506001600160a01b0382166000908152600a602052604090205460ff165b620003e15760405162461bcd60e51b815260206004820152605260248201527f596f7520617265206e6f7420616c6c6f77656420746f207472616e736665722060448201527f6f7220746865207265636965766572206973206e6f7420616c6c6f77656420746064820152716f206765742074686973204552433732312160701b608482015260a401620000ba565b620003ee848484620003f6565b949350505050565b6000828152600260205260408120546001600160a01b0390811690831615620004265762000426818486620004f5565b6001600160a01b0381161562000466576200044560008581806200055f565b6001600160a01b038116600090815260036020526040902080546000190190555b6001600160a01b0385161562000496576001600160a01b0385166000908152600360205260409020805460010190555b60008481526002602052604080822080546001600160a01b0319166001600160a01b0389811691821790925591518793918516917fddf252ad1be2c89b69c2b068fc378daa952ba7f163c4a11628f55a4df523b3ef91a4949350505050565b620005028383836200068d565b620002bb576001600160a01b0383166200053357604051637e27328960e01b815260048101829052602401620000ba565b60405163177e802f60e01b81526001600160a01b038316600482015260248101829052604401620000ba565b80806200057457506001600160a01b03821615155b156200065d576000620005878462000713565b90506001600160a01b03831615801590620005b45750826001600160a01b0316816001600160a01b031614155b8015620005e757506001600160a01b0380821660009081526005602090815260408083209387168352929052205460ff16155b15620006125760405163a9fbf51f60e01b81526001600160a01b0384166004820152602401620000ba565b81156200065b5783856001600160a01b0316826001600160a01b03167f8c5be1e5ebec7d5bd14f71427d1e84f3dd0314c0f7b2291e5b200ac8c7c3b92560405160405180910390a45b505b5050600090815260046020526040902080546001600160a01b0319166001600160a01b0392909216919091179055565b60006001600160a01b03831615801590620003ee5750826001600160a01b0316846001600160a01b03161480620006e957506001600160a01b0380851660009081526005602090815260408083209387168352929052205460ff165b80620003ee5750506000908152600460205260409020546001600160a01b03908116911614919050565b6000818152600260205260408120546001600160a01b0316806200074e57604051637e27328960e01b815260048101849052602401620000ba565b92915050565b634e487b7160e01b600052604160045260246000fd5b604051601f8201601f191681016001600160401b038111828210171562000795576200079562000754565b604052919050565b60006020808385031215620007b157600080fd5b82516001600160401b0380821115620007c957600080fd5b8185019150601f8681840112620007df57600080fd5b825182811115620007f457620007f462000754565b8060051b620008058682016200076a565b918252848101860191868101908a8411156200082057600080fd5b87870192505b83831015620008d357825186811115620008405760008081fd5b8701603f81018c13620008535760008081fd5b88810151878111156200086a576200086a62000754565b6200087d818801601f19168b016200076a565b81815260408e81848601011115620008955760008081fd5b60005b83811015620008b5578481018201518382018e01528c0162000898565b505060009181018b0191909152835250918701919087019062000826565b9a9950505050505050505050565b600181811c90821680620008f657607f821691505b6020821081036200091757634e487b7160e01b600052602260045260246000fd5b50919050565b601f821115620002bb57600081815260208120601f850160051c81016020861015620009465750805b601f850160051c820191505b81811015620009675782815560010162000952565b505050505050565b81516001600160401b038111156200098b576200098b62000754565b620009a3816200099c8454620008e1565b846200091d565b602080601f831160018114620009db5760008415620009c25750858301515b600019600386901b1c1916600185901b17855562000967565b600085815260208120601f198616915b8281101562000a0c57888601518255948401946001909101908401620009eb565b508582101562000a2b5787850151600019600388901b60f8161c191681555b5050505050600190811b01905550565b634e487b7160e01b600052603260045260246000fd5b60006001820162000a7257634e487b7160e01b600052601160045260246000fd5b5060010190565b6119268062000a896000396000f3fe608060405234801561001057600080fd5b506004361061018d5760003560e01c806379362ffc116100e3578063c1660e7c1161008c578063eacabe1411610066578063eacabe141461035a578063f2fde38b1461036d578063f84ddf0b1461038057600080fd5b8063c1660e7c146102f8578063c87b56dd1461030b578063e985e9c51461031e57600080fd5b8063a22cb465116100bd578063a22cb465146102bf578063b88d4fde146102d2578063bfd4c868146102e557600080fd5b806379362ffc146102935780638da5cb5b146102a657806395d89b41146102b757600080fd5b806323b872dd116101455780636352211e1161011f5780636352211e1461025757806370a082311461026a578063715018a61461028b57600080fd5b806323b872dd1461022257806334781dd81461023557806342842e0e1461024457600080fd5b8063081812fc11610176578063081812fc146101cf578063095ea7b3146101fa57806321b3f8501461020f57600080fd5b806301ffc9a71461019257806306fdde03146101ba575b600080fd5b6101a56101a03660046113ea565b610389565b60405190151581526020015b60405180910390f35b6101c26103cd565b6040516101b19190611457565b6101e26101dd36600461146a565b61045f565b6040516001600160a01b0390911681526020016101b1565b61020d61020836600461149f565b610488565b005b61020d61021d366004611555565b610497565b61020d6102303660046115b7565b6104fe565b604051600181526020016101b1565b61020d6102523660046115b7565b6105a7565b6101e261026536600461146a565b6105c7565b61027d6102783660046115f3565b6105d2565b6040519081526020016101b1565b61020d610633565b61020d6102a1366004611555565b610647565b6007546001600160a01b03166101e2565b6101c26106a2565b61020d6102cd36600461160e565b6106b1565b61020d6102e036600461164a565b6106bc565b61020d6102f33660046115f3565b6106d3565b61020d6103063660046115f3565b610752565b6101c261031936600461146a565b6107d1565b6101a561032c3660046116c6565b6001600160a01b03918216600090815260056020908152604080832093909416825291909152205460ff1690565b61027d610368366004611555565b6108e2565b61020d61037b3660046115f3565b61091f565b61027d60085481565b60006001600160e01b031982167f490649060000000000000000000000000000000000000000000000000000000014806103c757506103c782610976565b92915050565b6060600080546103dc906116f9565b80601f0160208091040260200160405190810160405280929190818152602001828054610408906116f9565b80156104555780601f1061042a57610100808354040283529160200191610455565b820191906000526020600020905b81548152906001019060200180831161043857829003601f168201915b5050505050905090565b600061046a82610a11565b506000828152600460205260409020546001600160a01b03166103c7565b610493828233610a4a565b5050565b61049f610a57565b6001600160a01b0382166000818152600a602052604090819020805460ff19166001179055517f0d7bae3f7feba88c812e9bd1651dfa44899e14305b4221c7afae7983f89cad42906104f2908490611457565b60405180910390a25050565b6001600160a01b03821661052d57604051633250574960e11b8152600060048201526024015b60405180910390fd5b600061053a838333610a9d565b9050836001600160a01b0316816001600160a01b0316146105a1576040517f64283d7b0000000000000000000000000000000000000000000000000000000081526001600160a01b0380861660048301526024820184905282166044820152606401610524565b50505050565b6105c2838383604051806020016040528060008152506106bc565b505050565b60006103c782610a11565b60006001600160a01b038216610617576040517f89c62b6400000000000000000000000000000000000000000000000000000000815260006004820152602401610524565b506001600160a01b031660009081526003602052604090205490565b61063b610a57565b6106456000610b7f565b565b61064f610a57565b6001600160a01b03821660008181526009602052604090819020805460ff19166001179055517f703f1df5eb23af1ce445005879b1f127e4e38da2ec6dd71ce060e0d4444c7649906104f2908490611457565b6060600180546103dc906116f9565b610493338383610bde565b6106c78484846104fe565b6105a184848484610c96565b6106db610a57565b6001600160a01b0381166107315760405162461bcd60e51b815260206004820152601b60248201527f43616e6e6f742072656d6f7665207a65726f20616464726573732100000000006044820152606401610524565b6001600160a01b03166000908152600a60205260409020805460ff19169055565b61075a610a57565b6001600160a01b0381166107b05760405162461bcd60e51b815260206004820152601b60248201527f43616e6e6f742072656d6f7665207a65726f20616464726573732100000000006044820152606401610524565b6001600160a01b03166000908152600960205260409020805460ff19169055565b60606107dc82610a11565b50600082815260066020526040812080546107f6906116f9565b80601f0160208091040260200160405190810160405280929190818152602001828054610822906116f9565b801561086f5780601f106108445761010080835404028352916020019161086f565b820191906000526020600020905b81548152906001019060200180831161085257829003601f168201915b50505050509050600061088d60408051602081019091526000815290565b9050805160000361089f575092915050565b8151156108d15780826040516020016108b9929190611733565b60405160208183030381529060405292505050919050565b6108da84610dbf565b949350505050565b60006108ec610a57565b600880549060006108fc83611762565b909155505060085461090e8482610e33565b6109188184610eb1565b9392505050565b610927610a57565b6001600160a01b03811661096a576040517f1e4fbdf700000000000000000000000000000000000000000000000000000000815260006004820152602401610524565b61097381610b7f565b50565b60006001600160e01b031982167f80ac58cd0000000000000000000000000000000000000000000000000000000014806109d957506001600160e01b031982167f5b5e139f00000000000000000000000000000000000000000000000000000000145b806103c757507f01ffc9a7000000000000000000000000000000000000000000000000000000006001600160e01b03198316146103c7565b6000818152600260205260408120546001600160a01b0316806103c757604051637e27328960e01b815260048101849052602401610524565b6105c28383836001610f01565b6007546001600160a01b03163314610645576040517f118cdaa7000000000000000000000000000000000000000000000000000000008152336004820152602401610524565b6001600160a01b03831660009081526009602052604081205460ff1680610adc57506001600160a01b0382166000908152600a602052604090205460ff165b610b745760405162461bcd60e51b815260206004820152605260248201527f596f7520617265206e6f7420616c6c6f77656420746f207472616e736665722060448201527f6f7220746865207265636965766572206973206e6f7420616c6c6f776564207460648201527f6f20676574207468697320455243373231210000000000000000000000000000608482015260a401610524565b6108da84848461104c565b600780546001600160a01b0383811673ffffffffffffffffffffffffffffffffffffffff19831681179093556040519116919082907f8be0079c531659141344cd1fd0a4f28419497f9722a3daafe3b4186f6b6457e090600090a35050565b6001600160a01b038216610c29576040517f5b08ba180000000000000000000000000000000000000000000000000000000081526001600160a01b0383166004820152602401610524565b6001600160a01b03838116600081815260056020908152604080832094871680845294825291829020805460ff191686151590811790915591519182527f17307eab39ab6107e8899845ad3d59bd9653f200f220920489ca2b5937696c31910160405180910390a3505050565b6001600160a01b0383163b156105a157604051630a85bd0160e11b81526001600160a01b0384169063150b7a0290610cd8903390889087908790600401611789565b6020604051808303816000875af1925050508015610d13575060408051601f3d908101601f19168201909252610d10918101906117c5565b60015b610d7c573d808015610d41576040519150601f19603f3d011682016040523d82523d6000602084013e610d46565b606091505b508051600003610d7457604051633250574960e11b81526001600160a01b0385166004820152602401610524565b805181602001fd5b6001600160e01b03198116630a85bd0160e11b14610db857604051633250574960e11b81526001600160a01b0385166004820152602401610524565b5050505050565b6060610dca82610a11565b506000610de260408051602081019091526000815290565b90506000815111610e025760405180602001604052806000815250610918565b80610e0c84611152565b604051602001610e1d929190611733565b6040516020818303038152906040529392505050565b6001600160a01b038216610e5d57604051633250574960e11b815260006004820152602401610524565b6000610e6b83836000610a9d565b90506001600160a01b038116156105c2576040517f73c6ac6e00000000000000000000000000000000000000000000000000000000815260006004820152602401610524565b6000828152600660205260409020610ec98282611830565b506040518281527ff8e1a15aba9398e019f0b49df1a4fde98ee17ae345cb5f6b5e2c27f5033e8ce79060200160405180910390a15050565b8080610f1557506001600160a01b03821615155b1561100f576000610f2584610a11565b90506001600160a01b03831615801590610f515750826001600160a01b0316816001600160a01b031614155b8015610f8357506001600160a01b0380821660009081526005602090815260408083209387168352929052205460ff16155b15610fc5576040517fa9fbf51f0000000000000000000000000000000000000000000000000000000081526001600160a01b0384166004820152602401610524565b811561100d5783856001600160a01b0316826001600160a01b03167f8c5be1e5ebec7d5bd14f71427d1e84f3dd0314c0f7b2291e5b200ac8c7c3b92560405160405180910390a45b505b50506000908152600460205260409020805473ffffffffffffffffffffffffffffffffffffffff19166001600160a01b0392909216919091179055565b6000828152600260205260408120546001600160a01b0390811690831615611079576110798184866111f2565b6001600160a01b038116156110b757611096600085600080610f01565b6001600160a01b038116600090815260036020526040902080546000190190555b6001600160a01b038516156110e6576001600160a01b0385166000908152600360205260409020805460010190555b600084815260026020526040808220805473ffffffffffffffffffffffffffffffffffffffff19166001600160a01b0389811691821790925591518793918516917fddf252ad1be2c89b69c2b068fc378daa952ba7f163c4a11628f55a4df523b3ef91a4949350505050565b6060600061115f8361126f565b600101905060008167ffffffffffffffff81111561117f5761117f6114c9565b6040519080825280601f01601f1916602001820160405280156111a9576020820181803683370190505b5090508181016020015b600019017f3031323334353637383961626364656600000000000000000000000000000000600a86061a8153600a85049450846111b357509392505050565b6111fd838383611351565b6105c2576001600160a01b03831661122b57604051637e27328960e01b815260048101829052602401610524565b6040517f177e802f0000000000000000000000000000000000000000000000000000000081526001600160a01b038316600482015260248101829052604401610524565b6000807a184f03e93ff9f4daa797ed6e38ed64bf6a1f01000000000000000083106112b8577a184f03e93ff9f4daa797ed6e38ed64bf6a1f010000000000000000830492506040015b6d04ee2d6d415b85acef810000000083106112e4576d04ee2d6d415b85acef8100000000830492506020015b662386f26fc10000831061130257662386f26fc10000830492506010015b6305f5e100831061131a576305f5e100830492506008015b612710831061132e57612710830492506004015b60648310611340576064830492506002015b600a83106103c75760010192915050565b60006001600160a01b038316158015906108da5750826001600160a01b0316846001600160a01b031614806113ab57506001600160a01b0380851660009081526005602090815260408083209387168352929052205460ff165b806108da5750506000908152600460205260409020546001600160a01b03908116911614919050565b6001600160e01b03198116811461097357600080fd5b6000602082840312156113fc57600080fd5b8135610918816113d4565b60005b8381101561142257818101518382015260200161140a565b50506000910152565b60008151808452611443816020860160208601611407565b601f01601f19169290920160200192915050565b602081526000610918602083018461142b565b60006020828403121561147c57600080fd5b5035919050565b80356001600160a01b038116811461149a57600080fd5b919050565b600080604083850312156114b257600080fd5b6114bb83611483565b946020939093013593505050565b634e487b7160e01b600052604160045260246000fd5b600067ffffffffffffffff808411156114fa576114fa6114c9565b604051601f8501601f19908116603f01168101908282118183101715611522576115226114c9565b8160405280935085815286868601111561153b57600080fd5b858560208301376000602087830101525050509392505050565b6000806040838503121561156857600080fd5b61157183611483565b9150602083013567ffffffffffffffff81111561158d57600080fd5b8301601f8101851361159e57600080fd5b6115ad858235602084016114df565b9150509250929050565b6000806000606084860312156115cc57600080fd5b6115d584611483565b92506115e360208501611483565b9150604084013590509250925092565b60006020828403121561160557600080fd5b61091882611483565b6000806040838503121561162157600080fd5b61162a83611483565b91506020830135801515811461163f57600080fd5b809150509250929050565b6000806000806080858703121561166057600080fd5b61166985611483565b935061167760208601611483565b925060408501359150606085013567ffffffffffffffff81111561169a57600080fd5b8501601f810187136116ab57600080fd5b6116ba878235602084016114df565b91505092959194509250565b600080604083850312156116d957600080fd5b6116e283611483565b91506116f060208401611483565b90509250929050565b600181811c9082168061170d57607f821691505b60208210810361172d57634e487b7160e01b600052602260045260246000fd5b50919050565b60008351611745818460208801611407565b835190830190611759818360208801611407565b01949350505050565b60006001820161178257634e487b7160e01b600052601160045260246000fd5b5060010190565b60006001600160a01b038087168352808616602084015250836040830152608060608301526117bb608083018461142b565b9695505050505050565b6000602082840312156117d757600080fd5b8151610918816113d4565b601f8211156105c257600081815260208120601f850160051c810160208610156118095750805b601f850160051c820191505b8181101561182857828155600101611815565b505050505050565b815167ffffffffffffffff81111561184a5761184a6114c9565b61185e8161185884546116f9565b846117e2565b602080601f831160018114611893576000841561187b5750858301515b600019600386901b1c1916600185901b178555611828565b600085815260208120601f198616915b828110156118c2578886015182559484019460019091019084016118a3565b50858210156118e05787850151600019600388901b60f8161c191681555b5050505050600190811b0190555056fea2646970667358221220e161e1a1843f4f9bce7dcbd64e05257bf026e6a58f304a2ef658dcb2c786549c64736f6c63430008150033",
  "devdoc": {
    "errors": {
      "ERC721IncorrectOwner(address,uint256,address)": [
        {
          "details": "Indicates an error related to the ownership over a particular token. Used in transfers.",
          "params": {
            "owner": "Address of the current owner of a token.",
            "sender": "Address whose tokens are being transferred.",
            "tokenId": "Identifier number of a token."
          }
        }
      ],
      "ERC721InsufficientApproval(address,uint256)": [
        {
          "details": "Indicates a failure with the `operator`s approval. Used in transfers.",
          "params": {
            "operator": "Address that may be allowed to operate on tokens without being their owner.",
            "tokenId": "Identifier number of a token."
          }
        }
      ],
      "ERC721InvalidApprover(address)": [
        {
          "details": "Indicates a failure with the `approver` of a token to be approved. Used in approvals.",
          "params": {
            "approver": "Address initiating an approval operation."
          }
        }
      ],
      "ERC721InvalidOperator(address)": [
        {
          "details": "Indicates a failure with the `operator` to be approved. Used in approvals.",
          "params": {
            "operator": "Address that may be allowed to operate on tokens without being their owner."
          }
        }
      ],
      "ERC721InvalidOwner(address)": [
        {
          "details": "Indicates that an address can't be an owner. For example, `address(0)` is a forbidden owner in EIP-20. Used in balance queries.",
          "params": {
            "owner": "Address of the current owner of a token."
          }
        }
      ],
      "ERC721InvalidReceiver(address)": [
        {
          "details": "Indicates a failure with the token `receiver`. Used in transfers.",
          "params": {
            "receiver": "Address to which tokens are being transferred."
          }
        }
      ],
      "ERC721InvalidSender(address)": [
        {
          "details": "Indicates a failure with the token `sender`. Used in transfers.",
          "params": {
            "sender": "Address whose tokens are being transferred."
          }
        }
      ],
      "ERC721NonexistentToken(uint256)": [
        {
          "details": "Indicates a `tokenId` whose `owner` is the zero address.",
          "params": {
            "tokenId": "Identifier number of a token."
          }
        }
      ],
      "OwnableInvalidOwner(address)": [
        {
          "details": "The owner is not a valid owner account. (eg. `address(0)`)"
        }
      ],
      "OwnableUnauthorizedAccount(address)": [
        {
          "details": "The caller account is not authorized to perform an operation."
        }
      ]
    },
    "events": {
      "Approval(address,address,uint256)": {
        "details": "Emitted when `owner` enables `approved` to manage the `tokenId` token."
      },
      "ApprovalForAll(address,address,bool)": {
        "details": "Emitted when `owner` enables or disables (`approved`) `operator` to manage all of its assets."
      },
      "BatchMetadataUpdate(uint256,uint256)": {
        "details": "This event emits when the metadata of a range of tokens is changed. So that the third-party platforms such as NFT market could timely update the images and related attributes of the NFTs."
      },
      "MetadataUpdate(uint256)": {
        "details": "This event emits when the metadata of a token is changed. So that the third-party platforms such as NFT market could timely update the images and related attributes of the NFT."
      },
      "Transfer(address,address,uint256)": {
        "details": "Emitted when `tokenId` token is transferred from `from` to `to`."
      }
    },
    "kind": "dev",
    "methods": {
      "approve(address,uint256)": {
        "details": "See {IERC721-approve}."
      },
      "balanceOf(address)": {
        "details": "See {IERC721-balanceOf}."
      },
      "getApproved(uint256)": {
        "details": "See {IERC721-getApproved}."
      },
      "isApprovedForAll(address,address)": {
        "details": "See {IERC721-isApprovedForAll}."
      },
      "mintNFT(address,string)": {
        "details": "we can mint only NFTs with id eq to the earliest id + 1",
        "params": {
          "recipient": "- user who will recieve erc721 token",
          "tokenURI": "- picture for metamask"
        }
      },
      "name()": {
        "details": "See {IERC721Metadata-name}."
      },
      "owner()": {
        "details": "Returns the address of the current owner."
      },
      "ownerOf(uint256)": {
        "details": "See {IERC721-ownerOf}."
      },
      "renounceOwnership()": {
        "details": "Leaves the contract without owner. It will not be possible to call `onlyOwner` functions. Can only be called by the current owner. NOTE: Renouncing ownership will leave the contract without an owner, thereby disabling any functionality that is only available to the owner."
      },
      "safeTransferFrom(address,address,uint256)": {
        "details": "See {IERC721-safeTransferFrom}."
      },
      "safeTransferFrom(address,address,uint256,bytes)": {
        "details": "See {IERC721-safeTransferFrom}."
      },
      "setApprovalForAll(address,bool)": {
        "details": "See {IERC721-setApprovalForAll}."
      },
      "supportsInterface(bytes4)": {
        "details": "See {IERC165-supportsInterface}"
      },
      "symbol()": {
        "details": "See {IERC721Metadata-symbol}."
      },
      "tokenURI(uint256)": {
        "details": "See {IERC721Metadata-tokenURI}."
      },
      "transferFrom(address,address,uint256)": {
        "details": "See {IERC721-transferFrom}."
      },
      "transferOwnership(address)": {
        "details": "Transfers ownership of the contract to a new account (`newOwner`). Can only be called by the current owner."
      }
    },
    "version": 1
  },
  "userdoc": {
    "kind": "user",
    "methods": {},
    "version": 1
  },
  "storageLayout": {
    "storage": [
      {
        "astId": 968,
        "contract": "contracts/tokens/NomadNFT.sol:Nomad",
        "label": "_name",
        "offset": 0,
        "slot": "0",
        "type": "t_string_storage"
      },
      {
        "astId": 970,
        "contract": "contracts/tokens/NomadNFT.sol:Nomad",
        "label": "_symbol",
        "offset": 0,
        "slot": "1",
        "type": "t_string_storage"
      },
      {
        "astId": 974,
        "contract": "contracts/tokens/NomadNFT.sol:Nomad",
        "label": "_owners",
        "offset": 0,
        "slot": "2",
        "type": "t_mapping(t_uint256,t_address)"
      },
      {
        "astId": 978,
        "contract": "contracts/tokens/NomadNFT.sol:Nomad",
        "label": "_balances",
        "offset": 0,
        "slot": "3",
        "type": "t_mapping(t_address,t_uint256)"
      },
      {
        "astId": 982,
        "contract": "contracts/tokens/NomadNFT.sol:Nomad",
        "label": "_tokenApprovals",
        "offset": 0,
        "slot": "4",
        "type": "t_mapping(t_uint256,t_address)"
      },
      {
        "astId": 988,
        "contract": "contracts/tokens/NomadNFT.sol:Nomad",
        "label": "_operatorApprovals",
        "offset": 0,
        "slot": "5",
        "type": "t_mapping(t_address,t_mapping(t_address,t_bool))"
      },
      {
        "astId": 2107,
        "contract": "contracts/tokens/NomadNFT.sol:Nomad",
        "label": "_tokenURIs",
        "offset": 0,
        "slot": "6",
        "type": "t_mapping(t_uint256,t_string_storage)"
      },
      {
        "astId": 8,
        "contract": "contracts/tokens/NomadNFT.sol:Nomad",
        "label": "_owner",
        "offset": 0,
        "slot": "7",
        "type": "t_address"
      },
      {
        "astId": 3972,
        "contract": "contracts/tokens/NomadNFT.sol:Nomad",
        "label": "lastTokenId",
        "offset": 0,
        "slot": "8",
        "type": "t_uint256"
      },
      {
        "astId": 3988,
        "contract": "contracts/tokens/NomadNFT.sol:Nomad",
        "label": "allowedTo",
        "offset": 0,
        "slot": "9",
        "type": "t_mapping(t_address,t_bool)"
      },
      {
        "astId": 3992,
        "contract": "contracts/tokens/NomadNFT.sol:Nomad",
        "label": "allowedFrom",
        "offset": 0,
        "slot": "10",
        "type": "t_mapping(t_address,t_bool)"
      }
    ],
    "types": {
      "t_address": {
        "encoding": "inplace",
        "label": "address",
        "numberOfBytes": "20"
      },
      "t_bool": {
        "encoding": "inplace",
        "label": "bool",
        "numberOfBytes": "1"
      },
      "t_mapping(t_address,t_bool)": {
        "encoding": "mapping",
        "key": "t_address",
        "label": "mapping(address => bool)",
        "numberOfBytes": "32",
        "value": "t_bool"
      },
      "t_mapping(t_address,t_mapping(t_address,t_bool))": {
        "encoding": "mapping",
        "key": "t_address",
        "label": "mapping(address => mapping(address => bool))",
        "numberOfBytes": "32",
        "value": "t_mapping(t_address,t_bool)"
      },
      "t_mapping(t_address,t_uint256)": {
        "encoding": "mapping",
        "key": "t_address",
        "label": "mapping(address => uint256)",
        "numberOfBytes": "32",
        "value": "t_uint256"
      },
      "t_mapping(t_uint256,t_address)": {
        "encoding": "mapping",
        "key": "t_uint256",
        "label": "mapping(uint256 => address)",
        "numberOfBytes": "32",
        "value": "t_address"
      },
      "t_mapping(t_uint256,t_string_storage)": {
        "encoding": "mapping",
        "key": "t_uint256",
        "label": "mapping(uint256 => string)",
        "numberOfBytes": "32",
        "value": "t_string_storage"
      },
      "t_string_storage": {
        "encoding": "bytes",
        "label": "string",
        "numberOfBytes": "32"
      },
      "t_uint256": {
        "encoding": "inplace",
        "label": "uint256",
        "numberOfBytes": "32"
      }
    }
  }
}