{
  "address": "0xFCafc609951223727BB8f2ea7e5fA85d8D419830",
  "abi": [
    {
      "inputs": [
        {
          "internalType": "address",
          "name": "_verifier",
          "type": "address"
        },
        {
          "internalType": "address",
          "name": "_token",
          "type": "address"
        },
        {
          "internalType": "uint256[]",
          "name": "_supportedChains",
          "type": "uint256[]"
        }
      ],
      "stateMutability": "nonpayable",
      "type": "constructor"
    },
    {
      "anonymous": false,
      "inputs": [
        {
          "indexed": false,
          "internalType": "address",
          "name": "account",
          "type": "address"
        }
      ],
      "name": "Paused",
      "type": "event"
    },
    {
      "anonymous": false,
      "inputs": [
        {
          "indexed": true,
          "internalType": "bytes32",
          "name": "role",
          "type": "bytes32"
        },
        {
          "indexed": true,
          "internalType": "bytes32",
          "name": "previousAdminRole",
          "type": "bytes32"
        },
        {
          "indexed": true,
          "internalType": "bytes32",
          "name": "newAdminRole",
          "type": "bytes32"
        }
      ],
      "name": "RoleAdminChanged",
      "type": "event"
    },
    {
      "anonymous": false,
      "inputs": [
        {
          "indexed": true,
          "internalType": "bytes32",
          "name": "role",
          "type": "bytes32"
        },
        {
          "indexed": true,
          "internalType": "address",
          "name": "account",
          "type": "address"
        },
        {
          "indexed": true,
          "internalType": "address",
          "name": "sender",
          "type": "address"
        }
      ],
      "name": "RoleGranted",
      "type": "event"
    },
    {
      "anonymous": false,
      "inputs": [
        {
          "indexed": true,
          "internalType": "bytes32",
          "name": "role",
          "type": "bytes32"
        },
        {
          "indexed": true,
          "internalType": "address",
          "name": "account",
          "type": "address"
        },
        {
          "indexed": true,
          "internalType": "address",
          "name": "sender",
          "type": "address"
        }
      ],
      "name": "RoleRevoked",
      "type": "event"
    },
    {
      "anonymous": false,
      "inputs": [
        {
          "indexed": true,
          "internalType": "uint256",
          "name": "timestamp",
          "type": "uint256"
        },
        {
          "indexed": true,
          "internalType": "address",
          "name": "user",
          "type": "address"
        },
        {
          "indexed": false,
          "internalType": "uint256",
          "name": "amount",
          "type": "uint256"
        },
        {
          "indexed": true,
          "internalType": "uint256",
          "name": "chainId",
          "type": "uint256"
        }
      ],
      "name": "TokensGot",
      "type": "event"
    },
    {
      "anonymous": false,
      "inputs": [
        {
          "indexed": true,
          "internalType": "uint256",
          "name": "timestamp",
          "type": "uint256"
        },
        {
          "indexed": true,
          "internalType": "address",
          "name": "user",
          "type": "address"
        },
        {
          "indexed": false,
          "internalType": "uint256",
          "name": "amount",
          "type": "uint256"
        },
        {
          "indexed": true,
          "internalType": "uint256",
          "name": "chainIdFrom",
          "type": "uint256"
        },
        {
          "indexed": false,
          "internalType": "uint256",
          "name": "chainIdTo",
          "type": "uint256"
        }
      ],
      "name": "TokensSent",
      "type": "event"
    },
    {
      "anonymous": false,
      "inputs": [
        {
          "indexed": false,
          "internalType": "address",
          "name": "account",
          "type": "address"
        }
      ],
      "name": "Unpaused",
      "type": "event"
    },
    {
      "inputs": [],
      "name": "ADMIN_ROLE",
      "outputs": [
        {
          "internalType": "bytes32",
          "name": "",
          "type": "bytes32"
        }
      ],
      "stateMutability": "view",
      "type": "function"
    },
    {
      "inputs": [],
      "name": "DEFAULT_ADMIN_ROLE",
      "outputs": [
        {
          "internalType": "bytes32",
          "name": "",
          "type": "bytes32"
        }
      ],
      "stateMutability": "view",
      "type": "function"
    },
    {
      "inputs": [],
      "name": "SIGNATORY_ROLE",
      "outputs": [
        {
          "internalType": "bytes32",
          "name": "",
          "type": "bytes32"
        }
      ],
      "stateMutability": "view",
      "type": "function"
    },
    {
      "inputs": [
        {
          "internalType": "address",
          "name": "oldVerifier",
          "type": "address"
        },
        {
          "internalType": "address",
          "name": "newVerifier",
          "type": "address"
        }
      ],
      "name": "changeVerifier",
      "outputs": [],
      "stateMutability": "nonpayable",
      "type": "function"
    },
    {
      "inputs": [
        {
          "internalType": "bytes32",
          "name": "role",
          "type": "bytes32"
        }
      ],
      "name": "getRoleAdmin",
      "outputs": [
        {
          "internalType": "bytes32",
          "name": "",
          "type": "bytes32"
        }
      ],
      "stateMutability": "view",
      "type": "function"
    },
    {
      "inputs": [
        {
          "components": [
            {
              "internalType": "uint256",
              "name": "timestamp",
              "type": "uint256"
            },
            {
              "internalType": "address",
              "name": "user",
              "type": "address"
            },
            {
              "internalType": "uint256",
              "name": "amount",
              "type": "uint256"
            },
            {
              "internalType": "uint256",
              "name": "chainIdFrom",
              "type": "uint256"
            },
            {
              "internalType": "uint256",
              "name": "chainIdTo",
              "type": "uint256"
            }
          ],
          "internalType": "struct Bridge.Transaction",
          "name": "transaction",
          "type": "tuple"
        },
        {
          "internalType": "bytes",
          "name": "signature",
          "type": "bytes"
        }
      ],
      "name": "getTokens",
      "outputs": [],
      "stateMutability": "nonpayable",
      "type": "function"
    },
    {
      "inputs": [
        {
          "internalType": "address",
          "name": "user",
          "type": "address"
        }
      ],
      "name": "getTransactions",
      "outputs": [
        {
          "components": [
            {
              "internalType": "uint256",
              "name": "timestamp",
              "type": "uint256"
            },
            {
              "internalType": "address",
              "name": "user",
              "type": "address"
            },
            {
              "internalType": "uint256",
              "name": "amount",
              "type": "uint256"
            },
            {
              "internalType": "uint256",
              "name": "chainIdFrom",
              "type": "uint256"
            },
            {
              "internalType": "uint256",
              "name": "chainIdTo",
              "type": "uint256"
            }
          ],
          "internalType": "struct Bridge.Transaction[]",
          "name": "",
          "type": "tuple[]"
        },
        {
          "components": [
            {
              "internalType": "uint256",
              "name": "timestamp",
              "type": "uint256"
            },
            {
              "internalType": "address",
              "name": "user",
              "type": "address"
            },
            {
              "internalType": "uint256",
              "name": "amount",
              "type": "uint256"
            },
            {
              "internalType": "uint256",
              "name": "chainIdFrom",
              "type": "uint256"
            },
            {
              "internalType": "uint256",
              "name": "chainIdTo",
              "type": "uint256"
            }
          ],
          "internalType": "struct Bridge.Transaction[]",
          "name": "",
          "type": "tuple[]"
        }
      ],
      "stateMutability": "view",
      "type": "function"
    },
    {
      "inputs": [
        {
          "internalType": "bytes32",
          "name": "role",
          "type": "bytes32"
        },
        {
          "internalType": "address",
          "name": "account",
          "type": "address"
        }
      ],
      "name": "grantRole",
      "outputs": [],
      "stateMutability": "nonpayable",
      "type": "function"
    },
    {
      "inputs": [
        {
          "internalType": "bytes32",
          "name": "role",
          "type": "bytes32"
        },
        {
          "internalType": "address",
          "name": "account",
          "type": "address"
        }
      ],
      "name": "hasRole",
      "outputs": [
        {
          "internalType": "bool",
          "name": "",
          "type": "bool"
        }
      ],
      "stateMutability": "view",
      "type": "function"
    },
    {
      "inputs": [],
      "name": "pause",
      "outputs": [],
      "stateMutability": "nonpayable",
      "type": "function"
    },
    {
      "inputs": [],
      "name": "paused",
      "outputs": [
        {
          "internalType": "bool",
          "name": "",
          "type": "bool"
        }
      ],
      "stateMutability": "view",
      "type": "function"
    },
    {
      "inputs": [
        {
          "internalType": "bytes32",
          "name": "role",
          "type": "bytes32"
        },
        {
          "internalType": "address",
          "name": "account",
          "type": "address"
        }
      ],
      "name": "renounceRole",
      "outputs": [],
      "stateMutability": "nonpayable",
      "type": "function"
    },
    {
      "inputs": [
        {
          "internalType": "bytes32",
          "name": "role",
          "type": "bytes32"
        },
        {
          "internalType": "address",
          "name": "account",
          "type": "address"
        }
      ],
      "name": "revokeRole",
      "outputs": [],
      "stateMutability": "nonpayable",
      "type": "function"
    },
    {
      "inputs": [
        {
          "internalType": "uint256",
          "name": "amount",
          "type": "uint256"
        },
        {
          "internalType": "uint256",
          "name": "toChain",
          "type": "uint256"
        }
      ],
      "name": "sendTokens",
      "outputs": [],
      "stateMutability": "nonpayable",
      "type": "function"
    },
    {
      "inputs": [
        {
          "internalType": "uint256[]",
          "name": "chainIds",
          "type": "uint256[]"
        }
      ],
      "name": "setSupportedChains",
      "outputs": [],
      "stateMutability": "nonpayable",
      "type": "function"
    },
    {
      "inputs": [],
      "name": "start",
      "outputs": [],
      "stateMutability": "nonpayable",
      "type": "function"
    },
    {
      "inputs": [
        {
          "internalType": "bytes4",
          "name": "interfaceId",
          "type": "bytes4"
        }
      ],
      "name": "supportsInterface",
      "outputs": [
        {
          "internalType": "bool",
          "name": "",
          "type": "bool"
        }
      ],
      "stateMutability": "view",
      "type": "function"
    },
    {
      "inputs": [],
      "name": "token",
      "outputs": [
        {
          "internalType": "contract IERC20",
          "name": "",
          "type": "address"
        }
      ],
      "stateMutability": "view",
      "type": "function"
    },
    {
      "inputs": [],
      "name": "withdrawEth",
      "outputs": [],
      "stateMutability": "nonpayable",
      "type": "function"
    },
    {
      "inputs": [],
      "name": "withdrawPac",
      "outputs": [],
      "stateMutability": "nonpayable",
      "type": "function"
    }
  ],
  "transactionHash": "0xd2e0225b61f81846d0c8aeb1a44c17e4442560d3d1df13445b3f0b4c67d69612",
  "args": [
    "0xBDc7d216b364C50b503a521A5cbCDE7e416d591b",
    "0xD722baC68242bc0b830667cD8999AE6DcDFAAC69",
    [
      56,
      800001
    ]
  ],
  "numDeployments": 1,
  "solcInputHash": "c909dde0b4097bff1d11fd076e51d7e9",
  "bytecode": "0x60806040523480156200001157600080fd5b50604051620039d9380380620039d9833981810160405281019062000037919062000516565b60008060006101000a81548160ff02191690831515021790555081600660006101000a81548173ffffffffffffffffffffffffffffffffffffffff021916908373ffffffffffffffffffffffffffffffffffffffff1602179055508060059080519060200190620000aa9291906200027c565b50620000dd7f9838a05512653d899e198165cc2a8305c24ac29892037f9cab63bdb153121845846200011860201b60201c565b6200010f7fa49807205ce4d355092ef5a8a18f56e8913cf4a201fbe287825b095693c21775336200011860201b60201c565b50505062000591565b6200012a82826200020960201b60201c565b6200020557600180600084815260200190815260200160002060000160008373ffffffffffffffffffffffffffffffffffffffff1673ffffffffffffffffffffffffffffffffffffffff16815260200190815260200160002060006101000a81548160ff021916908315150217905550620001aa6200027460201b60201c565b73ffffffffffffffffffffffffffffffffffffffff168173ffffffffffffffffffffffffffffffffffffffff16837f2f8788117e7eff1d82e926ec794901d17c78024a50270940304540a733656f0d60405160405180910390a45b5050565b60006001600084815260200190815260200160002060000160008373ffffffffffffffffffffffffffffffffffffffff1673ffffffffffffffffffffffffffffffffffffffff16815260200190815260200160002060009054906101000a900460ff16905092915050565b600033905090565b828054828255906000526020600020908101928215620002bb579160200282015b82811115620002ba5782518255916020019190600101906200029d565b5b509050620002ca9190620002ce565b5090565b5b80821115620002e9576000816000905550600101620002cf565b5090565b6000604051905090565b600080fd5b600080fd5b600073ffffffffffffffffffffffffffffffffffffffff82169050919050565b60006200032e8262000301565b9050919050565b620003408162000321565b81146200034c57600080fd5b50565b600081519050620003608162000335565b92915050565b600080fd5b6000601f19601f8301169050919050565b7f4e487b7100000000000000000000000000000000000000000000000000000000600052604160045260246000fd5b620003b6826200036b565b810181811067ffffffffffffffff82111715620003d857620003d76200037c565b5b80604052505050565b6000620003ed620002ed565b9050620003fb8282620003ab565b919050565b600067ffffffffffffffff8211156200041e576200041d6200037c565b5b602082029050602081019050919050565b600080fd5b6000819050919050565b620004498162000434565b81146200045557600080fd5b50565b60008151905062000469816200043e565b92915050565b600062000486620004808462000400565b620003e1565b90508083825260208201905060208402830185811115620004ac57620004ab6200042f565b5b835b81811015620004d95780620004c4888262000458565b845260208401935050602081019050620004ae565b5050509392505050565b600082601f830112620004fb57620004fa62000366565b5b81516200050d8482602086016200046f565b91505092915050565b600080600060608486031215620005325762000531620002f7565b5b600062000542868287016200034f565b935050602062000555868287016200034f565b925050604084015167ffffffffffffffff811115620005795762000578620002fc565b5b6200058786828701620004e3565b9150509250925092565b61343880620005a16000396000f3fe608060405234801561001057600080fd5b506004361061012c5760003560e01c80637236bfcb116100ad578063a217fddf11610071578063a217fddf146102f4578063adad536714610312578063be9a655514610330578063d547741f1461033a578063fc0c546a146103565761012c565b80637236bfcb1461027657806375b238fc146102925780638456cb59146102b057806391d14854146102ba578063a0ef91df146102ea5761012c565b806331bcd2b7116100f457806331bcd2b7146101e857806336568abe146102045780635c975abb146102205780635ef693521461023e5780636e07026a1461025a5761012c565b806301ffc9a7146101315780630f8cda20146101615780631d13941614610192578063248a9ca31461019c5780632f2ff15d146101cc575b600080fd5b61014b60048036038101906101469190611e4b565b610374565b6040516101589190611e93565b60405180910390f35b61017b60048036038101906101769190611f0c565b6103ee565b604051610189929190612078565b60405180910390f35b61019a610626565b005b6101b660048036038101906101b191906120e5565b61086d565b6040516101c39190612121565b60405180910390f35b6101e660048036038101906101e1919061213c565b61088d565b005b61020260048036038101906101fd91906121a8565b6108ae565b005b61021e6004803603810190610219919061213c565b610b92565b005b610228610c15565b6040516102359190611e93565b60405180910390f35b610258600480360381019061025391906123bf565b610c2b565b005b610274600480360381019061026f91906124e3565b610fee565b005b610290600480360381019061028b919061252c565b611033565b005b61029a6110b6565b6040516102a79190612121565b60405180910390f35b6102b86110da565b005b6102d460048036038101906102cf919061213c565b611117565b6040516102e19190611e93565b60405180910390f35b6102f2611182565b005b6102fc61129f565b6040516103099190612121565b60405180910390f35b61031a6112a6565b6040516103279190612121565b60405180910390f35b6103386112ca565b005b610354600480360381019061034f919061213c565b611307565b005b61035e611328565b60405161036b91906125cb565b60405180910390f35b60007f7965db0b000000000000000000000000000000000000000000000000000000007bffffffffffffffffffffffffffffffffffffffffffffffffffffffff1916827bffffffffffffffffffffffffffffffffffffffffffffffffffffffff191614806103e757506103e68261134e565b5b9050919050565b606080600360008473ffffffffffffffffffffffffffffffffffffffff1673ffffffffffffffffffffffffffffffffffffffff168152602001908152602001600020600460008573ffffffffffffffffffffffffffffffffffffffff1673ffffffffffffffffffffffffffffffffffffffff16815260200190815260200160002081805480602002602001604051908101604052809291908181526020016000905b8282101561054057838290600052602060002090600502016040518060a0016040529081600082015481526020016001820160009054906101000a900473ffffffffffffffffffffffffffffffffffffffff1673ffffffffffffffffffffffffffffffffffffffff1673ffffffffffffffffffffffffffffffffffffffff168152602001600282015481526020016003820154815260200160048201548152505081526020019060010190610490565b50505050915080805480602002602001604051908101604052809291908181526020016000905b8282101561061757838290600052602060002090600502016040518060a0016040529081600082015481526020016001820160009054906101000a900473ffffffffffffffffffffffffffffffffffffffff1673ffffffffffffffffffffffffffffffffffffffff1673ffffffffffffffffffffffffffffffffffffffff168152602001600282015481526020016003820154815260200160048201548152505081526020019060010190610567565b50505050905091509150915091565b7fa49807205ce4d355092ef5a8a18f56e8913cf4a201fbe287825b095693c21775610650816113b8565b6000600660009054906101000a900473ffffffffffffffffffffffffffffffffffffffff1673ffffffffffffffffffffffffffffffffffffffff166370a08231306040518263ffffffff1660e01b81526004016106ad91906125f5565b602060405180830381865afa1580156106ca573d6000803e3d6000fd5b505050506040513d601f19601f820116820180604052508101906106ee9190612625565b0361072e576040517f08c379a0000000000000000000000000000000000000000000000000000000008152600401610725906126af565b60405180910390fd5b600660009054906101000a900473ffffffffffffffffffffffffffffffffffffffff1673ffffffffffffffffffffffffffffffffffffffff1663a9059cbb33600660009054906101000a900473ffffffffffffffffffffffffffffffffffffffff1673ffffffffffffffffffffffffffffffffffffffff166370a08231306040518263ffffffff1660e01b81526004016107c891906125f5565b602060405180830381865afa1580156107e5573d6000803e3d6000fd5b505050506040513d601f19601f820116820180604052508101906108099190612625565b6040518363ffffffff1660e01b81526004016108269291906126de565b6020604051808303816000875af1158015610845573d6000803e3d6000fd5b505050506040513d601f19601f820116820180604052508101906108699190612733565b5050565b600060016000838152602001908152602001600020600101549050919050565b6108968261086d565b61089f816113b8565b6108a983836113cc565b505050565b6108b66114ac565b4681036108f8576040517f08c379a00000000000000000000000000000000000000000000000000000000081526004016108ef906127d2565b60405180910390fd5b6000821161093b576040517f08c379a00000000000000000000000000000000000000000000000000000000081526004016109329061283e565b60405180910390fd5b610944816114f6565b610983576040517f08c379a000000000000000000000000000000000000000000000000000000000815260040161097a906128aa565b60405180910390fd5b600660009054906101000a900473ffffffffffffffffffffffffffffffffffffffff1673ffffffffffffffffffffffffffffffffffffffff166323b872dd3330856040518463ffffffff1660e01b81526004016109e2939291906128ca565b6020604051808303816000875af1158015610a01573d6000803e3d6000fd5b505050506040513d601f19601f82011682018060405250810190610a259190612733565b50600360003373ffffffffffffffffffffffffffffffffffffffff1673ffffffffffffffffffffffffffffffffffffffff1681526020019081526020016000206040518060a001604052804281526020013373ffffffffffffffffffffffffffffffffffffffff1681526020018481526020014681526020018381525090806001815401808255809150506001900390600052602060002090600502016000909190919091506000820151816000015560208201518160010160006101000a81548173ffffffffffffffffffffffffffffffffffffffff021916908373ffffffffffffffffffffffffffffffffffffffff1602179055506040820151816002015560608201518160030155608082015181600401555050463373ffffffffffffffffffffffffffffffffffffffff16427ffcce1b53d72f8de27187986242013521ad35548eeea92107133e8dfa6de5b9328585604051610b86929190612901565b60405180910390a45050565b610b9a611552565b73ffffffffffffffffffffffffffffffffffffffff168173ffffffffffffffffffffffffffffffffffffffff1614610c07576040517f08c379a0000000000000000000000000000000000000000000000000000000008152600401610bfe9061299c565b60405180910390fd5b610c11828261155a565b5050565b60008060009054906101000a900460ff16905090565b610c336114ac565b3373ffffffffffffffffffffffffffffffffffffffff16826020015173ffffffffffffffffffffffffffffffffffffffff1614610ca5576040517f08c379a0000000000000000000000000000000000000000000000000000000008152600401610c9c90612a08565b60405180910390fd5b46826080015114610ceb576040517f08c379a0000000000000000000000000000000000000000000000000000000008152600401610ce290612a9a565b60405180910390fd5b600082604051602001610cfe9190612b22565b6040516020818303038152906040528051906020012090506002600084606001518152602001908152602001600020600082815260200190815260200160002060009054906101000a900460ff1615610d8c576040517f08c379a0000000000000000000000000000000000000000000000000000000008152600401610d8390612b89565b60405180910390fd5b60016002600085606001518152602001908152602001600020600083815260200190815260200160002060006101000a81548160ff021916908315150217905550600460003373ffffffffffffffffffffffffffffffffffffffff1673ffffffffffffffffffffffffffffffffffffffff1681526020019081526020016000208390806001815401808255809150506001900390600052602060002090600502016000909190919091506000820151816000015560208201518160010160006101000a81548173ffffffffffffffffffffffffffffffffffffffff021916908373ffffffffffffffffffffffffffffffffffffffff1602179055506040820151816002015560608201518160030155608082015181600401555050610eb1818361163c565b610ef0576040517f08c379a0000000000000000000000000000000000000000000000000000000008152600401610ee790612bf5565b60405180910390fd5b600660009054906101000a900473ffffffffffffffffffffffffffffffffffffffff1673ffffffffffffffffffffffffffffffffffffffff1663a9059cbb3385604001516040518363ffffffff1660e01b8152600401610f519291906126de565b6020604051808303816000875af1158015610f70573d6000803e3d6000fd5b505050506040513d601f19601f82011682018060405250810190610f949190612733565b50463373ffffffffffffffffffffffffffffffffffffffff16427f2273fc93b0297c4c6ca578b8030bea25c353d042e8631a3d716ae92571b373178660400151604051610fe19190612c15565b60405180910390a4505050565b7fa49807205ce4d355092ef5a8a18f56e8913cf4a201fbe287825b095693c21775611018816113b8565b816005908051906020019061102e929190611d75565b505050565b7fa49807205ce4d355092ef5a8a18f56e8913cf4a201fbe287825b095693c2177561105d816113b8565b6110877f9838a05512653d899e198165cc2a8305c24ac29892037f9cab63bdb15312184584611307565b6110b17f9838a05512653d899e198165cc2a8305c24ac29892037f9cab63bdb1531218458361088d565b505050565b7fa49807205ce4d355092ef5a8a18f56e8913cf4a201fbe287825b095693c2177581565b7fa49807205ce4d355092ef5a8a18f56e8913cf4a201fbe287825b095693c21775611104816113b8565b61110c6114ac565b61111461168a565b50565b60006001600084815260200190815260200160002060000160008373ffffffffffffffffffffffffffffffffffffffff1673ffffffffffffffffffffffffffffffffffffffff16815260200190815260200160002060009054906101000a900460ff16905092915050565b7fa49807205ce4d355092ef5a8a18f56e8913cf4a201fbe287825b095693c217756111ac816113b8565b600047036111ef576040517f08c379a00000000000000000000000000000000000000000000000000000000081526004016111e690612c7c565b60405180910390fd5b60003373ffffffffffffffffffffffffffffffffffffffff164760405161121590612ccd565b60006040518083038185875af1925050503d8060008114611252576040519150601f19603f3d011682016040523d82523d6000602084013e611257565b606091505b505090508061129b576040517f08c379a000000000000000000000000000000000000000000000000000000000815260040161129290612d2e565b60405180910390fd5b5050565b6000801b81565b7f9838a05512653d899e198165cc2a8305c24ac29892037f9cab63bdb15312184581565b7fa49807205ce4d355092ef5a8a18f56e8913cf4a201fbe287825b095693c217756112f4816113b8565b6112fc6116ec565b611304611735565b50565b6113108261086d565b611319816113b8565b611323838361155a565b505050565b600660009054906101000a900473ffffffffffffffffffffffffffffffffffffffff1681565b60007f01ffc9a7000000000000000000000000000000000000000000000000000000007bffffffffffffffffffffffffffffffffffffffffffffffffffffffff1916827bffffffffffffffffffffffffffffffffffffffffffffffffffffffff1916149050919050565b6113c9816113c4611552565b611797565b50565b6113d68282611117565b6114a857600180600084815260200190815260200160002060000160008373ffffffffffffffffffffffffffffffffffffffff1673ffffffffffffffffffffffffffffffffffffffff16815260200190815260200160002060006101000a81548160ff02191690831515021790555061144d611552565b73ffffffffffffffffffffffffffffffffffffffff168173ffffffffffffffffffffffffffffffffffffffff16837f2f8788117e7eff1d82e926ec794901d17c78024a50270940304540a733656f0d60405160405180910390a45b5050565b6114b4610c15565b156114f4576040517f08c379a00000000000000000000000000000000000000000000000000000000081526004016114eb90612d9a565b60405180910390fd5b565b6000805b60058054905081101561154757826005828154811061151c5761151b612dba565b5b90600052602060002001540361153657600191505061154d565b8061154090612e18565b90506114fa565b50600090505b919050565b600033905090565b6115648282611117565b156116385760006001600084815260200190815260200160002060000160008373ffffffffffffffffffffffffffffffffffffffff1673ffffffffffffffffffffffffffffffffffffffff16815260200190815260200160002060006101000a81548160ff0219169083151502179055506115dd611552565b73ffffffffffffffffffffffffffffffffffffffff168173ffffffffffffffffffffffffffffffffffffffff16837ff6391f5c32d9c69d2a47ea670b442974b53935d1edc7fd64eb21e047a839171b60405160405180910390a45b5050565b60006116827f9838a05512653d899e198165cc2a8305c24ac29892037f9cab63bdb15312184561167d8461166f8761181c565b61184c90919063ffffffff16565b611117565b905092915050565b6116926114ac565b60016000806101000a81548160ff0219169083151502179055507f62e78cea01bee320cd4e420270b5ea74000d11b0c9f74754ebdbfc544b05a2586116d5611552565b6040516116e291906125f5565b60405180910390a1565b6116f4610c15565b611733576040517f08c379a000000000000000000000000000000000000000000000000000000000815260040161172a90612eac565b60405180910390fd5b565b61173d6116ec565b60008060006101000a81548160ff0219169083151502179055507f5db9ee0a495bf2e6ff9c91a7834c1ba4fdd244a5e8aa4e537bd38aeae4b073aa611780611552565b60405161178d91906125f5565b60405180910390a1565b6117a18282611117565b611818576117ae81611873565b6117bc8360001c60206118a0565b6040516020016117cd929190612fd5565b6040516020818303038152906040526040517f08c379a000000000000000000000000000000000000000000000000000000000815260040161180f9190613048565b60405180910390fd5b5050565b60008160405160200161182f91906130d7565b604051602081830303815290604052805190602001209050919050565b600080600061185b8585611adc565b9150915061186881611b2d565b819250505092915050565b60606118998273ffffffffffffffffffffffffffffffffffffffff16601460ff166118a0565b9050919050565b6060600060028360026118b391906130fd565b6118bd919061313f565b67ffffffffffffffff8111156118d6576118d56121fe565b5b6040519080825280601f01601f1916602001820160405280156119085781602001600182028036833780820191505090505b5090507f3000000000000000000000000000000000000000000000000000000000000000816000815181106119405761193f612dba565b5b60200101907effffffffffffffffffffffffffffffffffffffffffffffffffffffffffffff1916908160001a9053507f7800000000000000000000000000000000000000000000000000000000000000816001815181106119a4576119a3612dba565b5b60200101907effffffffffffffffffffffffffffffffffffffffffffffffffffffffffffff1916908160001a905350600060018460026119e491906130fd565b6119ee919061313f565b90505b6001811115611a8e577f3031323334353637383961626364656600000000000000000000000000000000600f861660108110611a3057611a2f612dba565b5b1a60f81b828281518110611a4757611a46612dba565b5b60200101907effffffffffffffffffffffffffffffffffffffffffffffffffffffffffffff1916908160001a905350600485901c945080611a8790613173565b90506119f1565b5060008414611ad2576040517f08c379a0000000000000000000000000000000000000000000000000000000008152600401611ac9906131e8565b60405180910390fd5b8091505092915050565b6000806041835103611b1d5760008060006020860151925060408601519150606086015160001a9050611b1187828585611c93565b94509450505050611b26565b60006002915091505b9250929050565b60006004811115611b4157611b40613208565b5b816004811115611b5457611b53613208565b5b0315611c905760016004811115611b6e57611b6d613208565b5b816004811115611b8157611b80613208565b5b03611bc1576040517f08c379a0000000000000000000000000000000000000000000000000000000008152600401611bb890613283565b60405180910390fd5b60026004811115611bd557611bd4613208565b5b816004811115611be857611be7613208565b5b03611c28576040517f08c379a0000000000000000000000000000000000000000000000000000000008152600401611c1f906132ef565b60405180910390fd5b60036004811115611c3c57611c3b613208565b5b816004811115611c4f57611c4e613208565b5b03611c8f576040517f08c379a0000000000000000000000000000000000000000000000000000000008152600401611c8690613381565b60405180910390fd5b5b50565b6000807f7fffffffffffffffffffffffffffffff5d576e7357a4501ddfe92f46681b20a08360001c1115611cce576000600391509150611d6c565b600060018787878760405160008152602001604052604051611cf394939291906133bd565b6020604051602081039080840390855afa158015611d15573d6000803e3d6000fd5b505050602060405103519050600073ffffffffffffffffffffffffffffffffffffffff168173ffffffffffffffffffffffffffffffffffffffff1603611d6357600060019250925050611d6c565b80600092509250505b94509492505050565b828054828255906000526020600020908101928215611db1579160200282015b82811115611db0578251825591602001919060010190611d95565b5b509050611dbe9190611dc2565b5090565b5b80821115611ddb576000816000905550600101611dc3565b5090565b6000604051905090565b600080fd5b600080fd5b60007fffffffff0000000000000000000000000000000000000000000000000000000082169050919050565b611e2881611df3565b8114611e3357600080fd5b50565b600081359050611e4581611e1f565b92915050565b600060208284031215611e6157611e60611de9565b5b6000611e6f84828501611e36565b91505092915050565b60008115159050919050565b611e8d81611e78565b82525050565b6000602082019050611ea86000830184611e84565b92915050565b600073ffffffffffffffffffffffffffffffffffffffff82169050919050565b6000611ed982611eae565b9050919050565b611ee981611ece565b8114611ef457600080fd5b50565b600081359050611f0681611ee0565b92915050565b600060208284031215611f2257611f21611de9565b5b6000611f3084828501611ef7565b91505092915050565b600081519050919050565b600082825260208201905092915050565b6000819050602082019050919050565b6000819050919050565b611f7881611f65565b82525050565b611f8781611ece565b82525050565b60a082016000820151611fa36000850182611f6f565b506020820151611fb66020850182611f7e565b506040820151611fc96040850182611f6f565b506060820151611fdc6060850182611f6f565b506080820151611fef6080850182611f6f565b50505050565b60006120018383611f8d565b60a08301905092915050565b6000602082019050919050565b600061202582611f39565b61202f8185611f44565b935061203a83611f55565b8060005b8381101561206b5781516120528882611ff5565b975061205d8361200d565b92505060018101905061203e565b5085935050505092915050565b60006040820190508181036000830152612092818561201a565b905081810360208301526120a6818461201a565b90509392505050565b6000819050919050565b6120c2816120af565b81146120cd57600080fd5b50565b6000813590506120df816120b9565b92915050565b6000602082840312156120fb576120fa611de9565b5b6000612109848285016120d0565b91505092915050565b61211b816120af565b82525050565b60006020820190506121366000830184612112565b92915050565b6000806040838503121561215357612152611de9565b5b6000612161858286016120d0565b925050602061217285828601611ef7565b9150509250929050565b61218581611f65565b811461219057600080fd5b50565b6000813590506121a28161217c565b92915050565b600080604083850312156121bf576121be611de9565b5b60006121cd85828601612193565b92505060206121de85828601612193565b9150509250929050565b600080fd5b6000601f19601f8301169050919050565b7f4e487b7100000000000000000000000000000000000000000000000000000000600052604160045260246000fd5b612236826121ed565b810181811067ffffffffffffffff82111715612255576122546121fe565b5b80604052505050565b6000612268611ddf565b9050612274828261222d565b919050565b600060a0828403121561228f5761228e6121e8565b5b61229960a061225e565b905060006122a984828501612193565b60008301525060206122bd84828501611ef7565b60208301525060406122d184828501612193565b60408301525060606122e584828501612193565b60608301525060806122f984828501612193565b60808301525092915050565b600080fd5b600080fd5b600067ffffffffffffffff82111561232a576123296121fe565b5b612333826121ed565b9050602081019050919050565b82818337600083830152505050565b600061236261235d8461230f565b61225e565b90508281526020810184848401111561237e5761237d61230a565b5b612389848285612340565b509392505050565b600082601f8301126123a6576123a5612305565b5b81356123b684826020860161234f565b91505092915050565b60008060c083850312156123d6576123d5611de9565b5b60006123e485828601612279565b92505060a083013567ffffffffffffffff81111561240557612404611dee565b5b61241185828601612391565b9150509250929050565b600067ffffffffffffffff821115612436576124356121fe565b5b602082029050602081019050919050565b600080fd5b600061245f61245a8461241b565b61225e565b9050808382526020820190506020840283018581111561248257612481612447565b5b835b818110156124ab57806124978882612193565b845260208401935050602081019050612484565b5050509392505050565b600082601f8301126124ca576124c9612305565b5b81356124da84826020860161244c565b91505092915050565b6000602082840312156124f9576124f8611de9565b5b600082013567ffffffffffffffff81111561251757612516611dee565b5b612523848285016124b5565b91505092915050565b6000806040838503121561254357612542611de9565b5b600061255185828601611ef7565b925050602061256285828601611ef7565b9150509250929050565b6000819050919050565b600061259161258c61258784611eae565b61256c565b611eae565b9050919050565b60006125a382612576565b9050919050565b60006125b582612598565b9050919050565b6125c5816125aa565b82525050565b60006020820190506125e060008301846125bc565b92915050565b6125ef81611ece565b82525050565b600060208201905061260a60008301846125e6565b92915050565b60008151905061261f8161217c565b92915050565b60006020828403121561263b5761263a611de9565b5b600061264984828501612610565b91505092915050565b600082825260208201905092915050565b7f5a65726f205041432062616c616e63652e000000000000000000000000000000600082015250565b6000612699601183612652565b91506126a482612663565b602082019050919050565b600060208201905081810360008301526126c88161268c565b9050919050565b6126d881611f65565b82525050565b60006040820190506126f360008301856125e6565b61270060208301846126cf565b9392505050565b61271081611e78565b811461271b57600080fd5b50565b60008151905061272d81612707565b92915050565b60006020828403121561274957612748611de9565b5b60006127578482850161271e565b91505092915050565b7f596f752776652073657420636861696e206964206f66206e6574776f726b207960008201527f6f752772652063757272656e746c79206f6e2e00000000000000000000000000602082015250565b60006127bc603383612652565b91506127c782612760565b604082019050919050565b600060208201905081810360008301526127eb816127af565b9050919050565b7f5a65726f20616d6f756e742e0000000000000000000000000000000000000000600082015250565b6000612828600c83612652565b9150612833826127f2565b602082019050919050565b600060208201905081810360008301526128578161281b565b9050919050565b7f436861696e206973206e6f7420737570706f72746564207965742e0000000000600082015250565b6000612894601b83612652565b915061289f8261285e565b602082019050919050565b600060208201905081810360008301526128c381612887565b9050919050565b60006060820190506128df60008301866125e6565b6128ec60208301856125e6565b6128f960408301846126cf565b949350505050565b600060408201905061291660008301856126cf565b61292360208301846126cf565b9392505050565b7f416363657373436f6e74726f6c3a2063616e206f6e6c792072656e6f756e636560008201527f20726f6c657320666f722073656c660000000000000000000000000000000000602082015250565b6000612986602f83612652565b91506129918261292a565b604082019050919050565b600060208201905081810360008301526129b581612979565b9050919050565b7f4e6f7420636f727265637420757365722e000000000000000000000000000000600082015250565b60006129f2601183612652565b91506129fd826129bc565b602082019050919050565b60006020820190508181036000830152612a21816129e5565b9050919050565b7f4e6f7420636f727265637420636861696e20696420746f2067657420746f6b6560008201527f6e732e0000000000000000000000000000000000000000000000000000000000602082015250565b6000612a84602383612652565b9150612a8f82612a28565b604082019050919050565b60006020820190508181036000830152612ab381612a77565b9050919050565b60a082016000820151612ad06000850182611f6f565b506020820151612ae36020850182611f7e565b506040820151612af66040850182611f6f565b506060820151612b096060850182611f6f565b506080820151612b1c6080850182611f6f565b50505050565b600060a082019050612b376000830184612aba565b92915050565b7f5472616e73616374696f6e20616c72656164792066756c66696c6c65642e0000600082015250565b6000612b73601e83612652565b9150612b7e82612b3d565b602082019050919050565b60006020820190508181036000830152612ba281612b66565b9050919050565b7f57726f6e67207369676e61747572652e00000000000000000000000000000000600082015250565b6000612bdf601083612652565b9150612bea82612ba9565b602082019050919050565b60006020820190508181036000830152612c0e81612bd2565b9050919050565b6000602082019050612c2a60008301846126cf565b92915050565b7f5a65726f204554482062616c616e63652e000000000000000000000000000000600082015250565b6000612c66601183612652565b9150612c7182612c30565b602082019050919050565b60006020820190508181036000830152612c9581612c59565b9050919050565b600081905092915050565b50565b6000612cb7600083612c9c565b9150612cc282612ca7565b600082019050919050565b6000612cd882612caa565b9150819050919050565b7f4661696c656420746f2073656e64204574686572000000000000000000000000600082015250565b6000612d18601483612652565b9150612d2382612ce2565b602082019050919050565b60006020820190508181036000830152612d4781612d0b565b9050919050565b7f5061757361626c653a2070617573656400000000000000000000000000000000600082015250565b6000612d84601083612652565b9150612d8f82612d4e565b602082019050919050565b60006020820190508181036000830152612db381612d77565b9050919050565b7f4e487b7100000000000000000000000000000000000000000000000000000000600052603260045260246000fd5b7f4e487b7100000000000000000000000000000000000000000000000000000000600052601160045260246000fd5b6000612e2382611f65565b91507fffffffffffffffffffffffffffffffffffffffffffffffffffffffffffffffff8203612e5557612e54612de9565b5b600182019050919050565b7f5061757361626c653a206e6f7420706175736564000000000000000000000000600082015250565b6000612e96601483612652565b9150612ea182612e60565b602082019050919050565b60006020820190508181036000830152612ec581612e89565b9050919050565b600081905092915050565b7f416363657373436f6e74726f6c3a206163636f756e7420000000000000000000600082015250565b6000612f0d601783612ecc565b9150612f1882612ed7565b601782019050919050565b600081519050919050565b60005b83811015612f4c578082015181840152602081019050612f31565b60008484015250505050565b6000612f6382612f23565b612f6d8185612ecc565b9350612f7d818560208601612f2e565b80840191505092915050565b7f206973206d697373696e6720726f6c6520000000000000000000000000000000600082015250565b6000612fbf601183612ecc565b9150612fca82612f89565b601182019050919050565b6000612fe082612f00565b9150612fec8285612f58565b9150612ff782612fb2565b91506130038284612f58565b91508190509392505050565b600061301a82612f23565b6130248185612652565b9350613034818560208601612f2e565b61303d816121ed565b840191505092915050565b60006020820190508181036000830152613062818461300f565b905092915050565b7f19457468657265756d205369676e6564204d6573736167653a0a333200000000600082015250565b60006130a0601c83612ecc565b91506130ab8261306a565b601c82019050919050565b6000819050919050565b6130d16130cc826120af565b6130b6565b82525050565b60006130e282613093565b91506130ee82846130c0565b60208201915081905092915050565b600061310882611f65565b915061311383611f65565b925082820261312181611f65565b9150828204841483151761313857613137612de9565b5b5092915050565b600061314a82611f65565b915061315583611f65565b925082820190508082111561316d5761316c612de9565b5b92915050565b600061317e82611f65565b91506000820361319157613190612de9565b5b600182039050919050565b7f537472696e67733a20686578206c656e67746820696e73756666696369656e74600082015250565b60006131d2602083612652565b91506131dd8261319c565b602082019050919050565b60006020820190508181036000830152613201816131c5565b9050919050565b7f4e487b7100000000000000000000000000000000000000000000000000000000600052602160045260246000fd5b7f45434453413a20696e76616c6964207369676e61747572650000000000000000600082015250565b600061326d601883612652565b915061327882613237565b602082019050919050565b6000602082019050818103600083015261329c81613260565b9050919050565b7f45434453413a20696e76616c6964207369676e6174757265206c656e67746800600082015250565b60006132d9601f83612652565b91506132e4826132a3565b602082019050919050565b60006020820190508181036000830152613308816132cc565b9050919050565b7f45434453413a20696e76616c6964207369676e6174757265202773272076616c60008201527f7565000000000000000000000000000000000000000000000000000000000000602082015250565b600061336b602283612652565b91506133768261330f565b604082019050919050565b6000602082019050818103600083015261339a8161335e565b9050919050565b600060ff82169050919050565b6133b7816133a1565b82525050565b60006080820190506133d26000830187612112565b6133df60208301866133ae565b6133ec6040830185612112565b6133f96060830184612112565b9594505050505056fea26469706673582212209ba9fad04d22a480314330867bb7aee52548102e2f92f381c43391135c2aad7c64736f6c63430008120033",
  "devdoc": {
    "events": {
      "Paused(address)": {
        "details": "Emitted when the pause is triggered by `account`."
      },
      "RoleAdminChanged(bytes32,bytes32,bytes32)": {
        "details": "Emitted when `newAdminRole` is set as ``role``'s admin role, replacing `previousAdminRole` `DEFAULT_ADMIN_ROLE` is the starting admin for all roles, despite {RoleAdminChanged} not being emitted signaling this. _Available since v3.1._"
      },
      "RoleGranted(bytes32,address,address)": {
        "details": "Emitted when `account` is granted `role`. `sender` is the account that originated the contract call, an admin role bearer except when using {AccessControl-_setupRole}."
      },
      "RoleRevoked(bytes32,address,address)": {
        "details": "Emitted when `account` is revoked `role`. `sender` is the account that originated the contract call:   - if using `revokeRole`, it is the admin role bearer   - if using `renounceRole`, it is the role bearer (i.e. `account`)"
      },
      "Unpaused(address)": {
        "details": "Emitted when the pause is lifted by `account`."
      }
    },
    "kind": "dev",
    "methods": {
      "getRoleAdmin(bytes32)": {
        "details": "Returns the admin role that controls `role`. See {grantRole} and {revokeRole}. To change a role's admin, use {_setRoleAdmin}."
      },
      "grantRole(bytes32,address)": {
        "details": "Grants `role` to `account`. If `account` had not been already granted `role`, emits a {RoleGranted} event. Requirements: - the caller must have ``role``'s admin role. May emit a {RoleGranted} event."
      },
      "hasRole(bytes32,address)": {
        "details": "Returns `true` if `account` has been granted `role`."
      },
      "paused()": {
        "details": "Returns true if the contract is paused, and false otherwise."
      },
      "renounceRole(bytes32,address)": {
        "details": "Revokes `role` from the calling account. Roles are often managed via {grantRole} and {revokeRole}: this function's purpose is to provide a mechanism for accounts to lose their privileges if they are compromised (such as when a trusted device is misplaced). If the calling account had been revoked `role`, emits a {RoleRevoked} event. Requirements: - the caller must be `account`. May emit a {RoleRevoked} event."
      },
      "revokeRole(bytes32,address)": {
        "details": "Revokes `role` from `account`. If `account` had been granted `role`, emits a {RoleRevoked} event. Requirements: - the caller must have ``role``'s admin role. May emit a {RoleRevoked} event."
      },
      "supportsInterface(bytes4)": {
        "details": "See {IERC165-supportsInterface}."
      }
    },
    "version": 1
  },
  "userdoc": {
    "kind": "user",
    "methods": {},
    "version": 1
  },
  "storageLayout": {
    "storage": [
      {
        "astId": 519,
        "contract": "contracts/Bridge.sol:Bridge",
        "label": "_paused",
        "offset": 0,
        "slot": "0",
        "type": "t_bool"
      },
      {
        "astId": 24,
        "contract": "contracts/Bridge.sol:Bridge",
        "label": "_roles",
        "offset": 0,
        "slot": "1",
        "type": "t_mapping(t_bytes32,t_struct(RoleData)19_storage)"
      },
      {
        "astId": 2789,
        "contract": "contracts/Bridge.sol:Bridge",
        "label": "completedTransactions",
        "offset": 0,
        "slot": "2",
        "type": "t_mapping(t_uint256,t_mapping(t_bytes32,t_bool))"
      },
      {
        "astId": 2795,
        "contract": "contracts/Bridge.sol:Bridge",
        "label": "sentTransactions",
        "offset": 0,
        "slot": "3",
        "type": "t_mapping(t_address,t_array(t_struct(Transaction)2850_storage)dyn_storage)"
      },
      {
        "astId": 2801,
        "contract": "contracts/Bridge.sol:Bridge",
        "label": "gotTransactions",
        "offset": 0,
        "slot": "4",
        "type": "t_mapping(t_address,t_array(t_struct(Transaction)2850_storage)dyn_storage)"
      },
      {
        "astId": 2804,
        "contract": "contracts/Bridge.sol:Bridge",
        "label": "supportedChains",
        "offset": 0,
        "slot": "5",
        "type": "t_array(t_uint256)dyn_storage"
      },
      {
        "astId": 2807,
        "contract": "contracts/Bridge.sol:Bridge",
        "label": "token",
        "offset": 0,
        "slot": "6",
        "type": "t_contract(IERC20)1274"
      }
    ],
    "types": {
      "t_address": {
        "encoding": "inplace",
        "label": "address",
        "numberOfBytes": "20"
      },
      "t_array(t_struct(Transaction)2850_storage)dyn_storage": {
        "base": "t_struct(Transaction)2850_storage",
        "encoding": "dynamic_array",
        "label": "struct Bridge.Transaction[]",
        "numberOfBytes": "32"
      },
      "t_array(t_uint256)dyn_storage": {
        "base": "t_uint256",
        "encoding": "dynamic_array",
        "label": "uint256[]",
        "numberOfBytes": "32"
      },
      "t_bool": {
        "encoding": "inplace",
        "label": "bool",
        "numberOfBytes": "1"
      },
      "t_bytes32": {
        "encoding": "inplace",
        "label": "bytes32",
        "numberOfBytes": "32"
      },
      "t_contract(IERC20)1274": {
        "encoding": "inplace",
        "label": "contract IERC20",
        "numberOfBytes": "20"
      },
      "t_mapping(t_address,t_array(t_struct(Transaction)2850_storage)dyn_storage)": {
        "encoding": "mapping",
        "key": "t_address",
        "label": "mapping(address => struct Bridge.Transaction[])",
        "numberOfBytes": "32",
        "value": "t_array(t_struct(Transaction)2850_storage)dyn_storage"
      },
      "t_mapping(t_address,t_bool)": {
        "encoding": "mapping",
        "key": "t_address",
        "label": "mapping(address => bool)",
        "numberOfBytes": "32",
        "value": "t_bool"
      },
      "t_mapping(t_bytes32,t_bool)": {
        "encoding": "mapping",
        "key": "t_bytes32",
        "label": "mapping(bytes32 => bool)",
        "numberOfBytes": "32",
        "value": "t_bool"
      },
      "t_mapping(t_bytes32,t_struct(RoleData)19_storage)": {
        "encoding": "mapping",
        "key": "t_bytes32",
        "label": "mapping(bytes32 => struct AccessControl.RoleData)",
        "numberOfBytes": "32",
        "value": "t_struct(RoleData)19_storage"
      },
      "t_mapping(t_uint256,t_mapping(t_bytes32,t_bool))": {
        "encoding": "mapping",
        "key": "t_uint256",
        "label": "mapping(uint256 => mapping(bytes32 => bool))",
        "numberOfBytes": "32",
        "value": "t_mapping(t_bytes32,t_bool)"
      },
      "t_struct(RoleData)19_storage": {
        "encoding": "inplace",
        "label": "struct AccessControl.RoleData",
        "members": [
          {
            "astId": 16,
            "contract": "contracts/Bridge.sol:Bridge",
            "label": "members",
            "offset": 0,
            "slot": "0",
            "type": "t_mapping(t_address,t_bool)"
          },
          {
            "astId": 18,
            "contract": "contracts/Bridge.sol:Bridge",
            "label": "adminRole",
            "offset": 0,
            "slot": "1",
            "type": "t_bytes32"
          }
        ],
        "numberOfBytes": "64"
      },
      "t_struct(Transaction)2850_storage": {
        "encoding": "inplace",
        "label": "struct Bridge.Transaction",
        "members": [
          {
            "astId": 2841,
            "contract": "contracts/Bridge.sol:Bridge",
            "label": "timestamp",
            "offset": 0,
            "slot": "0",
            "type": "t_uint256"
          },
          {
            "astId": 2843,
            "contract": "contracts/Bridge.sol:Bridge",
            "label": "user",
            "offset": 0,
            "slot": "1",
            "type": "t_address"
          },
          {
            "astId": 2845,
            "contract": "contracts/Bridge.sol:Bridge",
            "label": "amount",
            "offset": 0,
            "slot": "2",
            "type": "t_uint256"
          },
          {
            "astId": 2847,
            "contract": "contracts/Bridge.sol:Bridge",
            "label": "chainIdFrom",
            "offset": 0,
            "slot": "3",
            "type": "t_uint256"
          },
          {
            "astId": 2849,
            "contract": "contracts/Bridge.sol:Bridge",
            "label": "chainIdTo",
            "offset": 0,
            "slot": "4",
            "type": "t_uint256"
          }
        ],
        "numberOfBytes": "160"
      },
      "t_uint256": {
        "encoding": "inplace",
        "label": "uint256",
        "numberOfBytes": "32"
      }
    }
  }
}