{
  "address": "0x662BDD36E3a2a51f6EF9C6B7F82B4041fbB253c0",
  "abi": [
    {
      "inputs": [
        {
          "internalType": "string[]",
          "name": "tokenURIs",
          "type": "string[]"
        }
      ],
      "stateMutability": "nonpayable",
      "type": "constructor"
    },
    {
      "inputs": [
        {
          "internalType": "address",
          "name": "sender",
          "type": "address"
        },
        {
          "internalType": "uint256",
          "name": "tokenId",
          "type": "uint256"
        },
        {
          "internalType": "address",
          "name": "owner",
          "type": "address"
        }
      ],
      "name": "ERC721IncorrectOwner",
      "type": "error"
    },
    {
      "inputs": [
        {
          "internalType": "address",
          "name": "operator",
          "type": "address"
        },
        {
          "internalType": "uint256",
          "name": "tokenId",
          "type": "uint256"
        }
      ],
      "name": "ERC721InsufficientApproval",
      "type": "error"
    },
    {
      "inputs": [
        {
          "internalType": "address",
          "name": "approver",
          "type": "address"
        }
      ],
      "name": "ERC721InvalidApprover",
      "type": "error"
    },
    {
      "inputs": [
        {
          "internalType": "address",
          "name": "operator",
          "type": "address"
        }
      ],
      "name": "ERC721InvalidOperator",
      "type": "error"
    },
    {
      "inputs": [
        {
          "internalType": "address",
          "name": "owner",
          "type": "address"
        }
      ],
      "name": "ERC721InvalidOwner",
      "type": "error"
    },
    {
      "inputs": [
        {
          "internalType": "address",
          "name": "receiver",
          "type": "address"
        }
      ],
      "name": "ERC721InvalidReceiver",
      "type": "error"
    },
    {
      "inputs": [
        {
          "internalType": "address",
          "name": "sender",
          "type": "address"
        }
      ],
      "name": "ERC721InvalidSender",
      "type": "error"
    },
    {
      "inputs": [
        {
          "internalType": "uint256",
          "name": "tokenId",
          "type": "uint256"
        }
      ],
      "name": "ERC721NonexistentToken",
      "type": "error"
    },
    {
      "inputs": [
        {
          "internalType": "address",
          "name": "owner",
          "type": "address"
        }
      ],
      "name": "OwnableInvalidOwner",
      "type": "error"
    },
    {
      "inputs": [
        {
          "internalType": "address",
          "name": "account",
          "type": "address"
        }
      ],
      "name": "OwnableUnauthorizedAccount",
      "type": "error"
    },
    {
      "anonymous": false,
      "inputs": [
        {
          "indexed": true,
          "internalType": "address",
          "name": "owner",
          "type": "address"
        },
        {
          "indexed": true,
          "internalType": "address",
          "name": "approved",
          "type": "address"
        },
        {
          "indexed": true,
          "internalType": "uint256",
          "name": "tokenId",
          "type": "uint256"
        }
      ],
      "name": "Approval",
      "type": "event"
    },
    {
      "anonymous": false,
      "inputs": [
        {
          "indexed": true,
          "internalType": "address",
          "name": "owner",
          "type": "address"
        },
        {
          "indexed": true,
          "internalType": "address",
          "name": "operator",
          "type": "address"
        },
        {
          "indexed": false,
          "internalType": "bool",
          "name": "approved",
          "type": "bool"
        }
      ],
      "name": "ApprovalForAll",
      "type": "event"
    },
    {
      "anonymous": false,
      "inputs": [
        {
          "indexed": false,
          "internalType": "uint256",
          "name": "_fromTokenId",
          "type": "uint256"
        },
        {
          "indexed": false,
          "internalType": "uint256",
          "name": "_toTokenId",
          "type": "uint256"
        }
      ],
      "name": "BatchMetadataUpdate",
      "type": "event"
    },
    {
      "anonymous": false,
      "inputs": [
        {
          "indexed": false,
          "internalType": "uint256",
          "name": "_tokenId",
          "type": "uint256"
        }
      ],
      "name": "MetadataUpdate",
      "type": "event"
    },
    {
      "anonymous": false,
      "inputs": [
        {
          "indexed": true,
          "internalType": "address",
          "name": "addr",
          "type": "address"
        },
        {
          "indexed": false,
          "internalType": "string",
          "name": "message",
          "type": "string"
        }
      ],
      "name": "NewAllowedFrom",
      "type": "event"
    },
    {
      "anonymous": false,
      "inputs": [
        {
          "indexed": true,
          "internalType": "address",
          "name": "addr",
          "type": "address"
        },
        {
          "indexed": false,
          "internalType": "string",
          "name": "message",
          "type": "string"
        }
      ],
      "name": "NewAllowedTo",
      "type": "event"
    },
    {
      "anonymous": false,
      "inputs": [
        {
          "indexed": true,
          "internalType": "address",
          "name": "previousOwner",
          "type": "address"
        },
        {
          "indexed": true,
          "internalType": "address",
          "name": "newOwner",
          "type": "address"
        }
      ],
      "name": "OwnershipTransferred",
      "type": "event"
    },
    {
      "anonymous": false,
      "inputs": [
        {
          "indexed": true,
          "internalType": "address",
          "name": "from",
          "type": "address"
        },
        {
          "indexed": true,
          "internalType": "address",
          "name": "to",
          "type": "address"
        },
        {
          "indexed": true,
          "internalType": "uint256",
          "name": "tokenId",
          "type": "uint256"
        }
      ],
      "name": "Transfer",
      "type": "event"
    },
    {
      "inputs": [
        {
          "internalType": "address",
          "name": "newOne",
          "type": "address"
        },
        {
          "internalType": "string",
          "name": "message",
          "type": "string"
        }
      ],
      "name": "addAllowedFrom",
      "outputs": [],
      "stateMutability": "nonpayable",
      "type": "function"
    },
    {
      "inputs": [
        {
          "internalType": "address",
          "name": "newOne",
          "type": "address"
        },
        {
          "internalType": "string",
          "name": "message",
          "type": "string"
        }
      ],
      "name": "addAllowedTo",
      "outputs": [],
      "stateMutability": "nonpayable",
      "type": "function"
    },
    {
      "inputs": [
        {
          "internalType": "address",
          "name": "to",
          "type": "address"
        },
        {
          "internalType": "uint256",
          "name": "tokenId",
          "type": "uint256"
        }
      ],
      "name": "approve",
      "outputs": [],
      "stateMutability": "nonpayable",
      "type": "function"
    },
    {
      "inputs": [
        {
          "internalType": "address",
          "name": "owner",
          "type": "address"
        }
      ],
      "name": "balanceOf",
      "outputs": [
        {
          "internalType": "uint256",
          "name": "",
          "type": "uint256"
        }
      ],
      "stateMutability": "view",
      "type": "function"
    },
    {
      "inputs": [],
      "name": "firstTokenId",
      "outputs": [
        {
          "internalType": "uint8",
          "name": "",
          "type": "uint8"
        }
      ],
      "stateMutability": "pure",
      "type": "function"
    },
    {
      "inputs": [
        {
          "internalType": "uint256",
          "name": "tokenId",
          "type": "uint256"
        }
      ],
      "name": "getApproved",
      "outputs": [
        {
          "internalType": "address",
          "name": "",
          "type": "address"
        }
      ],
      "stateMutability": "view",
      "type": "function"
    },
    {
      "inputs": [
        {
          "internalType": "address",
          "name": "owner",
          "type": "address"
        },
        {
          "internalType": "address",
          "name": "operator",
          "type": "address"
        }
      ],
      "name": "isApprovedForAll",
      "outputs": [
        {
          "internalType": "bool",
          "name": "",
          "type": "bool"
        }
      ],
      "stateMutability": "view",
      "type": "function"
    },
    {
      "inputs": [],
      "name": "lastTokenId",
      "outputs": [
        {
          "internalType": "uint256",
          "name": "",
          "type": "uint256"
        }
      ],
      "stateMutability": "view",
      "type": "function"
    },
    {
      "inputs": [
        {
          "internalType": "address",
          "name": "recipient",
          "type": "address"
        },
        {
          "internalType": "string",
          "name": "tokenURI",
          "type": "string"
        }
      ],
      "name": "mintNFT",
      "outputs": [
        {
          "internalType": "uint256",
          "name": "",
          "type": "uint256"
        }
      ],
      "stateMutability": "nonpayable",
      "type": "function"
    },
    {
      "inputs": [],
      "name": "name",
      "outputs": [
        {
          "internalType": "string",
          "name": "",
          "type": "string"
        }
      ],
      "stateMutability": "view",
      "type": "function"
    },
    {
      "inputs": [],
      "name": "owner",
      "outputs": [
        {
          "internalType": "address",
          "name": "",
          "type": "address"
        }
      ],
      "stateMutability": "view",
      "type": "function"
    },
    {
      "inputs": [
        {
          "internalType": "uint256",
          "name": "tokenId",
          "type": "uint256"
        }
      ],
      "name": "ownerOf",
      "outputs": [
        {
          "internalType": "address",
          "name": "",
          "type": "address"
        }
      ],
      "stateMutability": "view",
      "type": "function"
    },
    {
      "inputs": [
        {
          "internalType": "address",
          "name": "toRemove",
          "type": "address"
        }
      ],
      "name": "removeAllowedFrom",
      "outputs": [],
      "stateMutability": "nonpayable",
      "type": "function"
    },
    {
      "inputs": [
        {
          "internalType": "address",
          "name": "toRemove",
          "type": "address"
        }
      ],
      "name": "removeAllowedTo",
      "outputs": [],
      "stateMutability": "nonpayable",
      "type": "function"
    },
    {
      "inputs": [],
      "name": "renounceOwnership",
      "outputs": [],
      "stateMutability": "nonpayable",
      "type": "function"
    },
    {
      "inputs": [
        {
          "internalType": "address",
          "name": "from",
          "type": "address"
        },
        {
          "internalType": "address",
          "name": "to",
          "type": "address"
        },
        {
          "internalType": "uint256",
          "name": "tokenId",
          "type": "uint256"
        }
      ],
      "name": "safeTransferFrom",
      "outputs": [],
      "stateMutability": "nonpayable",
      "type": "function"
    },
    {
      "inputs": [
        {
          "internalType": "address",
          "name": "from",
          "type": "address"
        },
        {
          "internalType": "address",
          "name": "to",
          "type": "address"
        },
        {
          "internalType": "uint256",
          "name": "tokenId",
          "type": "uint256"
        },
        {
          "internalType": "bytes",
          "name": "data",
          "type": "bytes"
        }
      ],
      "name": "safeTransferFrom",
      "outputs": [],
      "stateMutability": "nonpayable",
      "type": "function"
    },
    {
      "inputs": [
        {
          "internalType": "address",
          "name": "operator",
          "type": "address"
        },
        {
          "internalType": "bool",
          "name": "approved",
          "type": "bool"
        }
      ],
      "name": "setApprovalForAll",
      "outputs": [],
      "stateMutability": "nonpayable",
      "type": "function"
    },
    {
      "inputs": [
        {
          "internalType": "bytes4",
          "name": "interfaceId",
          "type": "bytes4"
        }
      ],
      "name": "supportsInterface",
      "outputs": [
        {
          "internalType": "bool",
          "name": "",
          "type": "bool"
        }
      ],
      "stateMutability": "view",
      "type": "function"
    },
    {
      "inputs": [],
      "name": "symbol",
      "outputs": [
        {
          "internalType": "string",
          "name": "",
          "type": "string"
        }
      ],
      "stateMutability": "view",
      "type": "function"
    },
    {
      "inputs": [
        {
          "internalType": "uint256",
          "name": "tokenId",
          "type": "uint256"
        }
      ],
      "name": "tokenURI",
      "outputs": [
        {
          "internalType": "string",
          "name": "",
          "type": "string"
        }
      ],
      "stateMutability": "view",
      "type": "function"
    },
    {
      "inputs": [
        {
          "internalType": "address",
          "name": "from",
          "type": "address"
        },
        {
          "internalType": "address",
          "name": "to",
          "type": "address"
        },
        {
          "internalType": "uint256",
          "name": "tokenId",
          "type": "uint256"
        }
      ],
      "name": "transferFrom",
      "outputs": [],
      "stateMutability": "nonpayable",
      "type": "function"
    },
    {
      "inputs": [
        {
          "internalType": "address",
          "name": "newOwner",
          "type": "address"
        }
      ],
      "name": "transferOwnership",
      "outputs": [],
      "stateMutability": "nonpayable",
      "type": "function"
    }
  ],
  "transactionHash": "0x101e491b42f707e48b968f1e17be5b80232620c1e8ebdd5fa5a0dc7f3827275c",
  "args": [
    [
      "https://ipfs.io/ipfs/QmZPZwoAumeDWXou8uXRg2NvDANV92rXWf4BoW4wAcYGoB"
    ]
  ],
  "numDeployments": 1,
  "solcInputHash": "bf8827d197cc8ce09246b098161e748c",
  "bytecode": "0x60806040523480156200001157600080fd5b5060405162004305380380620043058339818101604052810190620000379190620010a6565b336040518060400160405280600581526020017f4e6f6d61640000000000000000000000000000000000000000000000000000008152506040518060400160405280600481526020017f4e6f4654000000000000000000000000000000000000000000000000000000008152508160009081620000b5919062001342565b508060019081620000c7919062001342565b505050600073ffffffffffffffffffffffffffffffffffffffff168173ffffffffffffffffffffffffffffffffffffffff16036200013f5760006040517f1e4fbdf70000000000000000000000000000000000000000000000000000000081526004016200013691906200146e565b60405180910390fd5b62000150816200025a60201b60201c565b506001600960008073ffffffffffffffffffffffffffffffffffffffff1673ffffffffffffffffffffffffffffffffffffffff16815260200190815260200160002060006101000a81548160ff0219169083151502179055506001600a60008073ffffffffffffffffffffffffffffffffffffffff1673ffffffffffffffffffffffffffffffffffffffff16815260200190815260200160002060006101000a81548160ff02191690831515021790555060005b815181101562000252576200023d338383815181106200022957620002286200148b565b5b60200260200101516200032060201b60201c565b50806200024a90620014e9565b905062000204565b505062001660565b6000600760009054906101000a900473ffffffffffffffffffffffffffffffffffffffff16905081600760006101000a81548173ffffffffffffffffffffffffffffffffffffffff021916908373ffffffffffffffffffffffffffffffffffffffff1602179055508173ffffffffffffffffffffffffffffffffffffffff168173ffffffffffffffffffffffffffffffffffffffff167f8be0079c531659141344cd1fd0a4f28419497f9722a3daafe3b4186f6b6457e060405160405180910390a35050565b6000620003326200038160201b60201c565b600860008154809291906200034790620014e9565b9190505550600060085490506200036584826200042360201b60201c565b6200037781846200052a60201b60201c565b8091505092915050565b620003916200058a60201b60201c565b73ffffffffffffffffffffffffffffffffffffffff16620003b76200059260201b60201c565b73ffffffffffffffffffffffffffffffffffffffff16146200042157620003e36200058a60201b60201c565b6040517f118cdaa70000000000000000000000000000000000000000000000000000000081526004016200041891906200146e565b60405180910390fd5b565b600073ffffffffffffffffffffffffffffffffffffffff168273ffffffffffffffffffffffffffffffffffffffff1603620004985760006040517f64a0ae920000000000000000000000000000000000000000000000000000000081526004016200048f91906200146e565b60405180910390fd5b6000620004ae83836000620005bc60201b60201c565b9050600073ffffffffffffffffffffffffffffffffffffffff168173ffffffffffffffffffffffffffffffffffffffff1614620005255760006040517f73c6ac6e0000000000000000000000000000000000000000000000000000000081526004016200051c91906200146e565b60405180910390fd5b505050565b806006600084815260200190815260200160002090816200054c919062001342565b507ff8e1a15aba9398e019f0b49df1a4fde98ee17ae345cb5f6b5e2c27f5033e8ce7826040516200057e919062001547565b60405180910390a15050565b600033905090565b6000600760009054906101000a900473ffffffffffffffffffffffffffffffffffffffff16905090565b6000600960008573ffffffffffffffffffffffffffffffffffffffff1673ffffffffffffffffffffffffffffffffffffffff16815260200190815260200160002060009054906101000a900460ff1680620006605750600a60008373ffffffffffffffffffffffffffffffffffffffff1673ffffffffffffffffffffffffffffffffffffffff16815260200190815260200160002060009054906101000a900460ff165b620006a2576040517f08c379a0000000000000000000000000000000000000000000000000000000008152600401620006999062001611565b60405180910390fd5b620006b5848484620006be60201b60201c565b90509392505050565b600080620006d284620008f360201b60201c565b9050600073ffffffffffffffffffffffffffffffffffffffff168373ffffffffffffffffffffffffffffffffffffffff16146200071d576200071c8184866200093060201b60201c565b5b600073ffffffffffffffffffffffffffffffffffffffff168173ffffffffffffffffffffffffffffffffffffffff1614620007b7576200076860008560008062000a0260201b60201c565b6001600360008373ffffffffffffffffffffffffffffffffffffffff1673ffffffffffffffffffffffffffffffffffffffff168152602001908152602001600020600082825403925050819055505b600073ffffffffffffffffffffffffffffffffffffffff168573ffffffffffffffffffffffffffffffffffffffff16146200083b576001600360008773ffffffffffffffffffffffffffffffffffffffff1673ffffffffffffffffffffffffffffffffffffffff168152602001908152602001600020600082825401925050819055505b846002600086815260200190815260200160002060006101000a81548173ffffffffffffffffffffffffffffffffffffffff021916908373ffffffffffffffffffffffffffffffffffffffff160217905550838573ffffffffffffffffffffffffffffffffffffffff168273ffffffffffffffffffffffffffffffffffffffff167fddf252ad1be2c89b69c2b068fc378daa952ba7f163c4a11628f55a4df523b3ef60405160405180910390a4809150509392505050565b60006002600083815260200190815260200160002060009054906101000a900473ffffffffffffffffffffffffffffffffffffffff169050919050565b6200094383838362000bdf60201b60201c565b620009fd57600073ffffffffffffffffffffffffffffffffffffffff168373ffffffffffffffffffffffffffffffffffffffff1603620009bc57806040517f7e273289000000000000000000000000000000000000000000000000000000008152600401620009b3919062001547565b60405180910390fd5b81816040517f177e802f000000000000000000000000000000000000000000000000000000008152600401620009f492919062001633565b60405180910390fd5b505050565b808062000a3c5750600073ffffffffffffffffffffffffffffffffffffffff168273ffffffffffffffffffffffffffffffffffffffff1614155b1562000b8757600062000a558462000cb360201b60201c565b9050600073ffffffffffffffffffffffffffffffffffffffff168373ffffffffffffffffffffffffffffffffffffffff161415801562000ac157508273ffffffffffffffffffffffffffffffffffffffff168173ffffffffffffffffffffffffffffffffffffffff1614155b801562000add575062000adb818462000d4660201b60201c565b155b1562000b2257826040517fa9fbf51f00000000000000000000000000000000000000000000000000000000815260040162000b1991906200146e565b60405180910390fd5b811562000b8557838573ffffffffffffffffffffffffffffffffffffffff168273ffffffffffffffffffffffffffffffffffffffff167f8c5be1e5ebec7d5bd14f71427d1e84f3dd0314c0f7b2291e5b200ac8c7c3b92560405160405180910390a45b505b836004600085815260200190815260200160002060006101000a81548173ffffffffffffffffffffffffffffffffffffffff021916908373ffffffffffffffffffffffffffffffffffffffff16021790555050505050565b60008073ffffffffffffffffffffffffffffffffffffffff168373ffffffffffffffffffffffffffffffffffffffff161415801562000caa57508273ffffffffffffffffffffffffffffffffffffffff168473ffffffffffffffffffffffffffffffffffffffff16148062000c62575062000c61848462000d4660201b60201c565b5b8062000ca957508273ffffffffffffffffffffffffffffffffffffffff1662000c918362000dda60201b60201c565b73ffffffffffffffffffffffffffffffffffffffff16145b5b90509392505050565b60008062000cc783620008f360201b60201c565b9050600073ffffffffffffffffffffffffffffffffffffffff168173ffffffffffffffffffffffffffffffffffffffff160362000d3d57826040517f7e27328900000000000000000000000000000000000000000000000000000000815260040162000d34919062001547565b60405180910390fd5b80915050919050565b6000600560008473ffffffffffffffffffffffffffffffffffffffff1673ffffffffffffffffffffffffffffffffffffffff16815260200190815260200160002060008373ffffffffffffffffffffffffffffffffffffffff1673ffffffffffffffffffffffffffffffffffffffff16815260200190815260200160002060009054906101000a900460ff16905092915050565b60006004600083815260200190815260200160002060009054906101000a900473ffffffffffffffffffffffffffffffffffffffff169050919050565b6000604051905090565b600080fd5b600080fd5b600080fd5b6000601f19601f8301169050919050565b7f4e487b7100000000000000000000000000000000000000000000000000000000600052604160045260246000fd5b62000e7b8262000e30565b810181811067ffffffffffffffff8211171562000e9d5762000e9c62000e41565b5b80604052505050565b600062000eb262000e17565b905062000ec0828262000e70565b919050565b600067ffffffffffffffff82111562000ee35762000ee262000e41565b5b602082029050602081019050919050565b600080fd5b600080fd5b600067ffffffffffffffff82111562000f1c5762000f1b62000e41565b5b62000f278262000e30565b9050602081019050919050565b60005b8381101562000f5457808201518184015260208101905062000f37565b60008484015250505050565b600062000f7762000f718462000efe565b62000ea6565b90508281526020810184848401111562000f965762000f9562000ef9565b5b62000fa384828562000f34565b509392505050565b600082601f83011262000fc35762000fc262000e2b565b5b815162000fd584826020860162000f60565b91505092915050565b600062000ff562000fef8462000ec5565b62000ea6565b905080838252602082019050602084028301858111156200101b576200101a62000ef4565b5b835b818110156200106957805167ffffffffffffffff81111562001044576200104362000e2b565b5b80860162001053898262000fab565b855260208501945050506020810190506200101d565b5050509392505050565b600082601f8301126200108b576200108a62000e2b565b5b81516200109d84826020860162000fde565b91505092915050565b600060208284031215620010bf57620010be62000e21565b5b600082015167ffffffffffffffff811115620010e057620010df62000e26565b5b620010ee8482850162001073565b91505092915050565b600081519050919050565b7f4e487b7100000000000000000000000000000000000000000000000000000000600052602260045260246000fd5b600060028204905060018216806200114a57607f821691505b60208210810362001160576200115f62001102565b5b50919050565b60008190508160005260206000209050919050565b60006020601f8301049050919050565b600082821b905092915050565b600060088302620011ca7fffffffffffffffffffffffffffffffffffffffffffffffffffffffffffffffff826200118b565b620011d686836200118b565b95508019841693508086168417925050509392505050565b6000819050919050565b6000819050919050565b6000620012236200121d6200121784620011ee565b620011f8565b620011ee565b9050919050565b6000819050919050565b6200123f8362001202565b620012576200124e826200122a565b84845462001198565b825550505050565b600090565b6200126e6200125f565b6200127b81848462001234565b505050565b5b81811015620012a3576200129760008262001264565b60018101905062001281565b5050565b601f821115620012f257620012bc8162001166565b620012c7846200117b565b81016020851015620012d7578190505b620012ef620012e6856200117b565b83018262001280565b50505b505050565b600082821c905092915050565b60006200131760001984600802620012f7565b1980831691505092915050565b600062001332838362001304565b9150826002028217905092915050565b6200134d82620010f7565b67ffffffffffffffff81111562001369576200136862000e41565b5b62001375825462001131565b62001382828285620012a7565b600060209050601f831160018114620013ba5760008415620013a5578287015190505b620013b1858262001324565b86555062001421565b601f198416620013ca8662001166565b60005b82811015620013f457848901518255600182019150602085019450602081019050620013cd565b8683101562001414578489015162001410601f89168262001304565b8355505b6001600288020188555050505b505050505050565b600073ffffffffffffffffffffffffffffffffffffffff82169050919050565b6000620014568262001429565b9050919050565b620014688162001449565b82525050565b60006020820190506200148560008301846200145d565b92915050565b7f4e487b7100000000000000000000000000000000000000000000000000000000600052603260045260246000fd5b7f4e487b7100000000000000000000000000000000000000000000000000000000600052601160045260246000fd5b6000620014f682620011ee565b91507fffffffffffffffffffffffffffffffffffffffffffffffffffffffffffffffff82036200152b576200152a620014ba565b5b600182019050919050565b6200154181620011ee565b82525050565b60006020820190506200155e600083018462001536565b92915050565b600082825260208201905092915050565b7f596f7520617265206e6f7420616c6c6f77656420746f207472616e736665722060008201527f6f7220746865207265636965766572206973206e6f7420616c6c6f776564207460208201527f6f20676574207468697320455243373231210000000000000000000000000000604082015250565b6000620015f960528362001564565b9150620016068262001575565b606082019050919050565b600060208201905081810360008301526200162c81620015ea565b9050919050565b60006040820190506200164a60008301856200145d565b62001659602083018462001536565b9392505050565b612c9580620016706000396000f3fe608060405234801561001057600080fd5b506004361061014d5760003560e01c806379362ffc116100c3578063c1660e7c1161007c578063c1660e7c14610374578063c87b56dd14610390578063e985e9c5146103c0578063eacabe14146103f0578063f2fde38b14610420578063f84ddf0b1461043c5761014d565b806379362ffc146102c85780638da5cb5b146102e457806395d89b4114610302578063a22cb46514610320578063b88d4fde1461033c578063bfd4c868146103585761014d565b806323b872dd1161011557806323b872dd1461020857806334781dd81461022457806342842e0e146102425780636352211e1461025e57806370a082311461028e578063715018a6146102be5761014d565b806301ffc9a71461015257806306fdde0314610182578063081812fc146101a0578063095ea7b3146101d057806321b3f850146101ec575b600080fd5b61016c60048036038101906101679190611f92565b61045a565b6040516101799190611fda565b60405180910390f35b61018a6104bb565b6040516101979190612085565b60405180910390f35b6101ba60048036038101906101b591906120dd565b61054d565b6040516101c7919061214b565b60405180910390f35b6101ea60048036038101906101e59190612192565b610569565b005b61020660048036038101906102019190612307565b61057f565b005b610222600480360381019061021d9190612363565b610631565b005b61022c610733565b60405161023991906123d2565b60405180910390f35b61025c60048036038101906102579190612363565b61073c565b005b610278600480360381019061027391906120dd565b61075c565b604051610285919061214b565b60405180910390f35b6102a860048036038101906102a391906123ed565b61076e565b6040516102b59190612429565b60405180910390f35b6102c6610828565b005b6102e260048036038101906102dd9190612307565b61083c565b005b6102ec6108ee565b6040516102f9919061214b565b60405180910390f35b61030a610918565b6040516103179190612085565b60405180910390f35b61033a60048036038101906103359190612470565b6109aa565b005b61035660048036038101906103519190612551565b6109c0565b005b610372600480360381019061036d91906123ed565b6109dd565b005b61038e600480360381019061038991906123ed565b610aaf565b005b6103aa60048036038101906103a591906120dd565b610b81565b6040516103b79190612085565b60405180910390f35b6103da60048036038101906103d591906125d4565b610c94565b6040516103e79190611fda565b60405180910390f35b61040a60048036038101906104059190612307565b610d28565b6040516104179190612429565b60405180910390f35b61043a600480360381019061043591906123ed565b610d6f565b005b610444610df5565b6040516104519190612429565b60405180910390f35b6000634906490660e01b7bffffffffffffffffffffffffffffffffffffffffffffffffffffffff1916827bffffffffffffffffffffffffffffffffffffffffffffffffffffffff191614806104b457506104b382610dfb565b5b9050919050565b6060600080546104ca90612643565b80601f01602080910402602001604051908101604052809291908181526020018280546104f690612643565b80156105435780601f1061051857610100808354040283529160200191610543565b820191906000526020600020905b81548152906001019060200180831161052657829003601f168201915b5050505050905090565b600061055882610edd565b5061056282610f65565b9050919050565b61057b8282610576610fa2565b610faa565b5050565b610587610fbc565b6001600a60008473ffffffffffffffffffffffffffffffffffffffff1673ffffffffffffffffffffffffffffffffffffffff16815260200190815260200160002060006101000a81548160ff0219169083151502179055508173ffffffffffffffffffffffffffffffffffffffff167f0d7bae3f7feba88c812e9bd1651dfa44899e14305b4221c7afae7983f89cad42826040516106259190612085565b60405180910390a25050565b600073ffffffffffffffffffffffffffffffffffffffff168273ffffffffffffffffffffffffffffffffffffffff16036106a35760006040517f64a0ae9200000000000000000000000000000000000000000000000000000000815260040161069a919061214b565b60405180910390fd5b60006106b783836106b2610fa2565b611043565b90508373ffffffffffffffffffffffffffffffffffffffff168173ffffffffffffffffffffffffffffffffffffffff161461072d578382826040517f64283d7b00000000000000000000000000000000000000000000000000000000815260040161072493929190612674565b60405180910390fd5b50505050565b60006001905090565b610757838383604051806020016040528060008152506109c0565b505050565b600061076782610edd565b9050919050565b60008073ffffffffffffffffffffffffffffffffffffffff168273ffffffffffffffffffffffffffffffffffffffff16036107e15760006040517f89c62b640000000000000000000000000000000000000000000000000000000081526004016107d8919061214b565b60405180910390fd5b600360008373ffffffffffffffffffffffffffffffffffffffff1673ffffffffffffffffffffffffffffffffffffffff168152602001908152602001600020549050919050565b610830610fbc565b61083a6000611139565b565b610844610fbc565b6001600960008473ffffffffffffffffffffffffffffffffffffffff1673ffffffffffffffffffffffffffffffffffffffff16815260200190815260200160002060006101000a81548160ff0219169083151502179055508173ffffffffffffffffffffffffffffffffffffffff167f703f1df5eb23af1ce445005879b1f127e4e38da2ec6dd71ce060e0d4444c7649826040516108e29190612085565b60405180910390a25050565b6000600760009054906101000a900473ffffffffffffffffffffffffffffffffffffffff16905090565b60606001805461092790612643565b80601f016020809104026020016040519081016040528092919081815260200182805461095390612643565b80156109a05780601f10610975576101008083540402835291602001916109a0565b820191906000526020600020905b81548152906001019060200180831161098357829003601f168201915b5050505050905090565b6109bc6109b5610fa2565b83836111ff565b5050565b6109cb848484610631565b6109d78484848461136e565b50505050565b6109e5610fbc565b600073ffffffffffffffffffffffffffffffffffffffff168173ffffffffffffffffffffffffffffffffffffffff1603610a54576040517f08c379a0000000000000000000000000000000000000000000000000000000008152600401610a4b906126f7565b60405180910390fd5b6000600a60008373ffffffffffffffffffffffffffffffffffffffff1673ffffffffffffffffffffffffffffffffffffffff16815260200190815260200160002060006101000a81548160ff02191690831515021790555050565b610ab7610fbc565b600073ffffffffffffffffffffffffffffffffffffffff168173ffffffffffffffffffffffffffffffffffffffff1603610b26576040517f08c379a0000000000000000000000000000000000000000000000000000000008152600401610b1d906126f7565b60405180910390fd5b6000600960008373ffffffffffffffffffffffffffffffffffffffff1673ffffffffffffffffffffffffffffffffffffffff16815260200190815260200160002060006101000a81548160ff02191690831515021790555050565b6060610b8c82610edd565b506000600660008481526020019081526020016000208054610bad90612643565b80601f0160208091040260200160405190810160405280929190818152602001828054610bd990612643565b8015610c265780601f10610bfb57610100808354040283529160200191610c26565b820191906000526020600020905b815481529060010190602001808311610c0957829003601f168201915b505050505090506000610c37611525565b90506000815103610c4c578192505050610c8f565b600082511115610c81578082604051602001610c69929190612753565b60405160208183030381529060405292505050610c8f565b610c8a8461153c565b925050505b919050565b6000600560008473ffffffffffffffffffffffffffffffffffffffff1673ffffffffffffffffffffffffffffffffffffffff16815260200190815260200160002060008373ffffffffffffffffffffffffffffffffffffffff1673ffffffffffffffffffffffffffffffffffffffff16815260200190815260200160002060009054906101000a900460ff16905092915050565b6000610d32610fbc565b60086000815480929190610d45906127a6565b919050555060006008549050610d5b84826115a5565b610d65818461169e565b8091505092915050565b610d77610fbc565b600073ffffffffffffffffffffffffffffffffffffffff168173ffffffffffffffffffffffffffffffffffffffff1603610de95760006040517f1e4fbdf7000000000000000000000000000000000000000000000000000000008152600401610de0919061214b565b60405180910390fd5b610df281611139565b50565b60085481565b60007f80ac58cd000000000000000000000000000000000000000000000000000000007bffffffffffffffffffffffffffffffffffffffffffffffffffffffff1916827bffffffffffffffffffffffffffffffffffffffffffffffffffffffff19161480610ec657507f5b5e139f000000000000000000000000000000000000000000000000000000007bffffffffffffffffffffffffffffffffffffffffffffffffffffffff1916827bffffffffffffffffffffffffffffffffffffffffffffffffffffffff1916145b80610ed65750610ed5826116fa565b5b9050919050565b600080610ee983611764565b9050600073ffffffffffffffffffffffffffffffffffffffff168173ffffffffffffffffffffffffffffffffffffffff1603610f5c57826040517f7e273289000000000000000000000000000000000000000000000000000000008152600401610f539190612429565b60405180910390fd5b80915050919050565b60006004600083815260200190815260200160002060009054906101000a900473ffffffffffffffffffffffffffffffffffffffff169050919050565b600033905090565b610fb783838360016117a1565b505050565b610fc4610fa2565b73ffffffffffffffffffffffffffffffffffffffff16610fe26108ee565b73ffffffffffffffffffffffffffffffffffffffff161461104157611005610fa2565b6040517f118cdaa7000000000000000000000000000000000000000000000000000000008152600401611038919061214b565b60405180910390fd5b565b6000600960008573ffffffffffffffffffffffffffffffffffffffff1673ffffffffffffffffffffffffffffffffffffffff16815260200190815260200160002060009054906101000a900460ff16806110e65750600a60008373ffffffffffffffffffffffffffffffffffffffff1673ffffffffffffffffffffffffffffffffffffffff16815260200190815260200160002060009054906101000a900460ff165b611125576040517f08c379a000000000000000000000000000000000000000000000000000000000815260040161111c90612886565b60405180910390fd5b611130848484611966565b90509392505050565b6000600760009054906101000a900473ffffffffffffffffffffffffffffffffffffffff16905081600760006101000a81548173ffffffffffffffffffffffffffffffffffffffff021916908373ffffffffffffffffffffffffffffffffffffffff1602179055508173ffffffffffffffffffffffffffffffffffffffff168173ffffffffffffffffffffffffffffffffffffffff167f8be0079c531659141344cd1fd0a4f28419497f9722a3daafe3b4186f6b6457e060405160405180910390a35050565b600073ffffffffffffffffffffffffffffffffffffffff168273ffffffffffffffffffffffffffffffffffffffff160361127057816040517f5b08ba18000000000000000000000000000000000000000000000000000000008152600401611267919061214b565b60405180910390fd5b80600560008573ffffffffffffffffffffffffffffffffffffffff1673ffffffffffffffffffffffffffffffffffffffff16815260200190815260200160002060008473ffffffffffffffffffffffffffffffffffffffff1673ffffffffffffffffffffffffffffffffffffffff16815260200190815260200160002060006101000a81548160ff0219169083151502179055508173ffffffffffffffffffffffffffffffffffffffff168373ffffffffffffffffffffffffffffffffffffffff167f17307eab39ab6107e8899845ad3d59bd9653f200f220920489ca2b5937696c31836040516113619190611fda565b60405180910390a3505050565b60008373ffffffffffffffffffffffffffffffffffffffff163b111561151f578273ffffffffffffffffffffffffffffffffffffffff1663150b7a026113b2610fa2565b8685856040518563ffffffff1660e01b81526004016113d494939291906128fb565b6020604051808303816000875af192505050801561141057506040513d601f19601f8201168201806040525081019061140d919061295c565b60015b611494573d8060008114611440576040519150601f19603f3d011682016040523d82523d6000602084013e611445565b606091505b50600081510361148c57836040517f64a0ae92000000000000000000000000000000000000000000000000000000008152600401611483919061214b565b60405180910390fd5b805181602001fd5b63150b7a0260e01b7bffffffffffffffffffffffffffffffffffffffffffffffffffffffff1916817bffffffffffffffffffffffffffffffffffffffffffffffffffffffff19161461151d57836040517f64a0ae92000000000000000000000000000000000000000000000000000000008152600401611514919061214b565b60405180910390fd5b505b50505050565b606060405180602001604052806000815250905090565b606061154782610edd565b506000611552611525565b90506000815111611572576040518060200160405280600081525061159d565b8061157c84611b80565b60405160200161158d929190612753565b6040516020818303038152906040525b915050919050565b600073ffffffffffffffffffffffffffffffffffffffff168273ffffffffffffffffffffffffffffffffffffffff16036116175760006040517f64a0ae9200000000000000000000000000000000000000000000000000000000815260040161160e919061214b565b60405180910390fd5b600061162583836000611043565b9050600073ffffffffffffffffffffffffffffffffffffffff168173ffffffffffffffffffffffffffffffffffffffff16146116995760006040517f73c6ac6e000000000000000000000000000000000000000000000000000000008152600401611690919061214b565b60405180910390fd5b505050565b806006600084815260200190815260200160002090816116be9190612b35565b507ff8e1a15aba9398e019f0b49df1a4fde98ee17ae345cb5f6b5e2c27f5033e8ce7826040516116ee9190612429565b60405180910390a15050565b60007f01ffc9a7000000000000000000000000000000000000000000000000000000007bffffffffffffffffffffffffffffffffffffffffffffffffffffffff1916827bffffffffffffffffffffffffffffffffffffffffffffffffffffffff1916149050919050565b60006002600083815260200190815260200160002060009054906101000a900473ffffffffffffffffffffffffffffffffffffffff169050919050565b80806117da5750600073ffffffffffffffffffffffffffffffffffffffff168273ffffffffffffffffffffffffffffffffffffffff1614155b1561190e5760006117ea84610edd565b9050600073ffffffffffffffffffffffffffffffffffffffff168373ffffffffffffffffffffffffffffffffffffffff161415801561185557508273ffffffffffffffffffffffffffffffffffffffff168173ffffffffffffffffffffffffffffffffffffffff1614155b801561186857506118668184610c94565b155b156118aa57826040517fa9fbf51f0000000000000000000000000000000000000000000000000000000081526004016118a1919061214b565b60405180910390fd5b811561190c57838573ffffffffffffffffffffffffffffffffffffffff168273ffffffffffffffffffffffffffffffffffffffff167f8c5be1e5ebec7d5bd14f71427d1e84f3dd0314c0f7b2291e5b200ac8c7c3b92560405160405180910390a45b505b836004600085815260200190815260200160002060006101000a81548173ffffffffffffffffffffffffffffffffffffffff021916908373ffffffffffffffffffffffffffffffffffffffff16021790555050505050565b60008061197284611764565b9050600073ffffffffffffffffffffffffffffffffffffffff168373ffffffffffffffffffffffffffffffffffffffff16146119b4576119b3818486611c4e565b5b600073ffffffffffffffffffffffffffffffffffffffff168173ffffffffffffffffffffffffffffffffffffffff1614611a45576119f66000856000806117a1565b6001600360008373ffffffffffffffffffffffffffffffffffffffff1673ffffffffffffffffffffffffffffffffffffffff168152602001908152602001600020600082825403925050819055505b600073ffffffffffffffffffffffffffffffffffffffff168573ffffffffffffffffffffffffffffffffffffffff1614611ac8576001600360008773ffffffffffffffffffffffffffffffffffffffff1673ffffffffffffffffffffffffffffffffffffffff168152602001908152602001600020600082825401925050819055505b846002600086815260200190815260200160002060006101000a81548173ffffffffffffffffffffffffffffffffffffffff021916908373ffffffffffffffffffffffffffffffffffffffff160217905550838573ffffffffffffffffffffffffffffffffffffffff168273ffffffffffffffffffffffffffffffffffffffff167fddf252ad1be2c89b69c2b068fc378daa952ba7f163c4a11628f55a4df523b3ef60405160405180910390a4809150509392505050565b606060006001611b8f84611d12565b01905060008167ffffffffffffffff811115611bae57611bad6121dc565b5b6040519080825280601f01601f191660200182016040528015611be05781602001600182028036833780820191505090505b509050600082602001820190505b600115611c43578080600190039150507f3031323334353637383961626364656600000000000000000000000000000000600a86061a8153600a8581611c3757611c36612c07565b5b04945060008503611bee575b819350505050919050565b611c59838383611e65565b611d0d57600073ffffffffffffffffffffffffffffffffffffffff168373ffffffffffffffffffffffffffffffffffffffff1603611cce57806040517f7e273289000000000000000000000000000000000000000000000000000000008152600401611cc59190612429565b60405180910390fd5b81816040517f177e802f000000000000000000000000000000000000000000000000000000008152600401611d04929190612c36565b60405180910390fd5b505050565b600080600090507a184f03e93ff9f4daa797ed6e38ed64bf6a1f0100000000000000008310611d70577a184f03e93ff9f4daa797ed6e38ed64bf6a1f0100000000000000008381611d6657611d65612c07565b5b0492506040810190505b6d04ee2d6d415b85acef81000000008310611dad576d04ee2d6d415b85acef81000000008381611da357611da2612c07565b5b0492506020810190505b662386f26fc100008310611ddc57662386f26fc100008381611dd257611dd1612c07565b5b0492506010810190505b6305f5e1008310611e05576305f5e1008381611dfb57611dfa612c07565b5b0492506008810190505b6127108310611e2a576127108381611e2057611e1f612c07565b5b0492506004810190505b60648310611e4d5760648381611e4357611e42612c07565b5b0492506002810190505b600a8310611e5c576001810190505b80915050919050565b60008073ffffffffffffffffffffffffffffffffffffffff168373ffffffffffffffffffffffffffffffffffffffff1614158015611f1d57508273ffffffffffffffffffffffffffffffffffffffff168473ffffffffffffffffffffffffffffffffffffffff161480611ede5750611edd8484610c94565b5b80611f1c57508273ffffffffffffffffffffffffffffffffffffffff16611f0483610f65565b73ffffffffffffffffffffffffffffffffffffffff16145b5b90509392505050565b6000604051905090565b600080fd5b600080fd5b60007fffffffff0000000000000000000000000000000000000000000000000000000082169050919050565b611f6f81611f3a565b8114611f7a57600080fd5b50565b600081359050611f8c81611f66565b92915050565b600060208284031215611fa857611fa7611f30565b5b6000611fb684828501611f7d565b91505092915050565b60008115159050919050565b611fd481611fbf565b82525050565b6000602082019050611fef6000830184611fcb565b92915050565b600081519050919050565b600082825260208201905092915050565b60005b8381101561202f578082015181840152602081019050612014565b60008484015250505050565b6000601f19601f8301169050919050565b600061205782611ff5565b6120618185612000565b9350612071818560208601612011565b61207a8161203b565b840191505092915050565b6000602082019050818103600083015261209f818461204c565b905092915050565b6000819050919050565b6120ba816120a7565b81146120c557600080fd5b50565b6000813590506120d7816120b1565b92915050565b6000602082840312156120f3576120f2611f30565b5b6000612101848285016120c8565b91505092915050565b600073ffffffffffffffffffffffffffffffffffffffff82169050919050565b60006121358261210a565b9050919050565b6121458161212a565b82525050565b6000602082019050612160600083018461213c565b92915050565b61216f8161212a565b811461217a57600080fd5b50565b60008135905061218c81612166565b92915050565b600080604083850312156121a9576121a8611f30565b5b60006121b78582860161217d565b92505060206121c8858286016120c8565b9150509250929050565b600080fd5b600080fd5b7f4e487b7100000000000000000000000000000000000000000000000000000000600052604160045260246000fd5b6122148261203b565b810181811067ffffffffffffffff82111715612233576122326121dc565b5b80604052505050565b6000612246611f26565b9050612252828261220b565b919050565b600067ffffffffffffffff821115612272576122716121dc565b5b61227b8261203b565b9050602081019050919050565b82818337600083830152505050565b60006122aa6122a584612257565b61223c565b9050828152602081018484840111156122c6576122c56121d7565b5b6122d1848285612288565b509392505050565b600082601f8301126122ee576122ed6121d2565b5b81356122fe848260208601612297565b91505092915050565b6000806040838503121561231e5761231d611f30565b5b600061232c8582860161217d565b925050602083013567ffffffffffffffff81111561234d5761234c611f35565b5b612359858286016122d9565b9150509250929050565b60008060006060848603121561237c5761237b611f30565b5b600061238a8682870161217d565b935050602061239b8682870161217d565b92505060406123ac868287016120c8565b9150509250925092565b600060ff82169050919050565b6123cc816123b6565b82525050565b60006020820190506123e760008301846123c3565b92915050565b60006020828403121561240357612402611f30565b5b60006124118482850161217d565b91505092915050565b612423816120a7565b82525050565b600060208201905061243e600083018461241a565b92915050565b61244d81611fbf565b811461245857600080fd5b50565b60008135905061246a81612444565b92915050565b6000806040838503121561248757612486611f30565b5b60006124958582860161217d565b92505060206124a68582860161245b565b9150509250929050565b600067ffffffffffffffff8211156124cb576124ca6121dc565b5b6124d48261203b565b9050602081019050919050565b60006124f46124ef846124b0565b61223c565b9050828152602081018484840111156125105761250f6121d7565b5b61251b848285612288565b509392505050565b600082601f830112612538576125376121d2565b5b81356125488482602086016124e1565b91505092915050565b6000806000806080858703121561256b5761256a611f30565b5b60006125798782880161217d565b945050602061258a8782880161217d565b935050604061259b878288016120c8565b925050606085013567ffffffffffffffff8111156125bc576125bb611f35565b5b6125c887828801612523565b91505092959194509250565b600080604083850312156125eb576125ea611f30565b5b60006125f98582860161217d565b925050602061260a8582860161217d565b9150509250929050565b7f4e487b7100000000000000000000000000000000000000000000000000000000600052602260045260246000fd5b6000600282049050600182168061265b57607f821691505b60208210810361266e5761266d612614565b5b50919050565b6000606082019050612689600083018661213c565b612696602083018561241a565b6126a3604083018461213c565b949350505050565b7f43616e6e6f742072656d6f7665207a65726f2061646472657373210000000000600082015250565b60006126e1601b83612000565b91506126ec826126ab565b602082019050919050565b60006020820190508181036000830152612710816126d4565b9050919050565b600081905092915050565b600061272d82611ff5565b6127378185612717565b9350612747818560208601612011565b80840191505092915050565b600061275f8285612722565b915061276b8284612722565b91508190509392505050565b7f4e487b7100000000000000000000000000000000000000000000000000000000600052601160045260246000fd5b60006127b1826120a7565b91507fffffffffffffffffffffffffffffffffffffffffffffffffffffffffffffffff82036127e3576127e2612777565b5b600182019050919050565b7f596f7520617265206e6f7420616c6c6f77656420746f207472616e736665722060008201527f6f7220746865207265636965766572206973206e6f7420616c6c6f776564207460208201527f6f20676574207468697320455243373231210000000000000000000000000000604082015250565b6000612870605283612000565b915061287b826127ee565b606082019050919050565b6000602082019050818103600083015261289f81612863565b9050919050565b600081519050919050565b600082825260208201905092915050565b60006128cd826128a6565b6128d781856128b1565b93506128e7818560208601612011565b6128f08161203b565b840191505092915050565b6000608082019050612910600083018761213c565b61291d602083018661213c565b61292a604083018561241a565b818103606083015261293c81846128c2565b905095945050505050565b60008151905061295681611f66565b92915050565b60006020828403121561297257612971611f30565b5b600061298084828501612947565b91505092915050565b60008190508160005260206000209050919050565b60006020601f8301049050919050565b600082821b905092915050565b6000600883026129eb7fffffffffffffffffffffffffffffffffffffffffffffffffffffffffffffffff826129ae565b6129f586836129ae565b95508019841693508086168417925050509392505050565b6000819050919050565b6000612a32612a2d612a28846120a7565b612a0d565b6120a7565b9050919050565b6000819050919050565b612a4c83612a17565b612a60612a5882612a39565b8484546129bb565b825550505050565b600090565b612a75612a68565b612a80818484612a43565b505050565b5b81811015612aa457612a99600082612a6d565b600181019050612a86565b5050565b601f821115612ae957612aba81612989565b612ac38461299e565b81016020851015612ad2578190505b612ae6612ade8561299e565b830182612a85565b50505b505050565b600082821c905092915050565b6000612b0c60001984600802612aee565b1980831691505092915050565b6000612b258383612afb565b9150826002028217905092915050565b612b3e82611ff5565b67ffffffffffffffff811115612b5757612b566121dc565b5b612b618254612643565b612b6c828285612aa8565b600060209050601f831160018114612b9f5760008415612b8d578287015190505b612b978582612b19565b865550612bff565b601f198416612bad86612989565b60005b82811015612bd557848901518255600182019150602085019450602081019050612bb0565b86831015612bf25784890151612bee601f891682612afb565b8355505b6001600288020188555050505b505050505050565b7f4e487b7100000000000000000000000000000000000000000000000000000000600052601260045260246000fd5b6000604082019050612c4b600083018561213c565b612c58602083018461241a565b939250505056fea26469706673582212202f6c906dee782415bdb014d40cee251f8ece13d76e023fae46143b33d5ad509464736f6c63430008150033",
  "devdoc": {
    "errors": {
      "ERC721IncorrectOwner(address,uint256,address)": [
        {
          "details": "Indicates an error related to the ownership over a particular token. Used in transfers.",
          "params": {
            "owner": "Address of the current owner of a token.",
            "sender": "Address whose tokens are being transferred.",
            "tokenId": "Identifier number of a token."
          }
        }
      ],
      "ERC721InsufficientApproval(address,uint256)": [
        {
          "details": "Indicates a failure with the `operator`s approval. Used in transfers.",
          "params": {
            "operator": "Address that may be allowed to operate on tokens without being their owner.",
            "tokenId": "Identifier number of a token."
          }
        }
      ],
      "ERC721InvalidApprover(address)": [
        {
          "details": "Indicates a failure with the `approver` of a token to be approved. Used in approvals.",
          "params": {
            "approver": "Address initiating an approval operation."
          }
        }
      ],
      "ERC721InvalidOperator(address)": [
        {
          "details": "Indicates a failure with the `operator` to be approved. Used in approvals.",
          "params": {
            "operator": "Address that may be allowed to operate on tokens without being their owner."
          }
        }
      ],
      "ERC721InvalidOwner(address)": [
        {
          "details": "Indicates that an address can't be an owner. For example, `address(0)` is a forbidden owner in EIP-20. Used in balance queries.",
          "params": {
            "owner": "Address of the current owner of a token."
          }
        }
      ],
      "ERC721InvalidReceiver(address)": [
        {
          "details": "Indicates a failure with the token `receiver`. Used in transfers.",
          "params": {
            "receiver": "Address to which tokens are being transferred."
          }
        }
      ],
      "ERC721InvalidSender(address)": [
        {
          "details": "Indicates a failure with the token `sender`. Used in transfers.",
          "params": {
            "sender": "Address whose tokens are being transferred."
          }
        }
      ],
      "ERC721NonexistentToken(uint256)": [
        {
          "details": "Indicates a `tokenId` whose `owner` is the zero address.",
          "params": {
            "tokenId": "Identifier number of a token."
          }
        }
      ],
      "OwnableInvalidOwner(address)": [
        {
          "details": "The owner is not a valid owner account. (eg. `address(0)`)"
        }
      ],
      "OwnableUnauthorizedAccount(address)": [
        {
          "details": "The caller account is not authorized to perform an operation."
        }
      ]
    },
    "events": {
      "Approval(address,address,uint256)": {
        "details": "Emitted when `owner` enables `approved` to manage the `tokenId` token."
      },
      "ApprovalForAll(address,address,bool)": {
        "details": "Emitted when `owner` enables or disables (`approved`) `operator` to manage all of its assets."
      },
      "BatchMetadataUpdate(uint256,uint256)": {
        "details": "This event emits when the metadata of a range of tokens is changed. So that the third-party platforms such as NFT market could timely update the images and related attributes of the NFTs."
      },
      "MetadataUpdate(uint256)": {
        "details": "This event emits when the metadata of a token is changed. So that the third-party platforms such as NFT market could timely update the images and related attributes of the NFT."
      },
      "Transfer(address,address,uint256)": {
        "details": "Emitted when `tokenId` token is transferred from `from` to `to`."
      }
    },
    "kind": "dev",
    "methods": {
      "approve(address,uint256)": {
        "details": "See {IERC721-approve}."
      },
      "balanceOf(address)": {
        "details": "See {IERC721-balanceOf}."
      },
      "getApproved(uint256)": {
        "details": "See {IERC721-getApproved}."
      },
      "isApprovedForAll(address,address)": {
        "details": "See {IERC721-isApprovedForAll}."
      },
      "mintNFT(address,string)": {
        "details": "we can mint only NFTs with id eq to the earliest id + 1",
        "params": {
          "recipient": "- user who will recieve erc721 token",
          "tokenURI": "- picture for metamask"
        }
      },
      "name()": {
        "details": "See {IERC721Metadata-name}."
      },
      "owner()": {
        "details": "Returns the address of the current owner."
      },
      "ownerOf(uint256)": {
        "details": "See {IERC721-ownerOf}."
      },
      "renounceOwnership()": {
        "details": "Leaves the contract without owner. It will not be possible to call `onlyOwner` functions. Can only be called by the current owner. NOTE: Renouncing ownership will leave the contract without an owner, thereby disabling any functionality that is only available to the owner."
      },
      "safeTransferFrom(address,address,uint256)": {
        "details": "See {IERC721-safeTransferFrom}."
      },
      "safeTransferFrom(address,address,uint256,bytes)": {
        "details": "See {IERC721-safeTransferFrom}."
      },
      "setApprovalForAll(address,bool)": {
        "details": "See {IERC721-setApprovalForAll}."
      },
      "supportsInterface(bytes4)": {
        "details": "See {IERC165-supportsInterface}"
      },
      "symbol()": {
        "details": "See {IERC721Metadata-symbol}."
      },
      "tokenURI(uint256)": {
        "details": "See {IERC721Metadata-tokenURI}."
      },
      "transferFrom(address,address,uint256)": {
        "details": "See {IERC721-transferFrom}."
      },
      "transferOwnership(address)": {
        "details": "Transfers ownership of the contract to a new account (`newOwner`). Can only be called by the current owner."
      }
    },
    "version": 1
  },
  "userdoc": {
    "kind": "user",
    "methods": {},
    "version": 1
  },
  "storageLayout": {
    "storage": [
      {
        "astId": 968,
        "contract": "contracts/tokens/NomadNFT.sol:Nomad",
        "label": "_name",
        "offset": 0,
        "slot": "0",
        "type": "t_string_storage"
      },
      {
        "astId": 970,
        "contract": "contracts/tokens/NomadNFT.sol:Nomad",
        "label": "_symbol",
        "offset": 0,
        "slot": "1",
        "type": "t_string_storage"
      },
      {
        "astId": 974,
        "contract": "contracts/tokens/NomadNFT.sol:Nomad",
        "label": "_owners",
        "offset": 0,
        "slot": "2",
        "type": "t_mapping(t_uint256,t_address)"
      },
      {
        "astId": 978,
        "contract": "contracts/tokens/NomadNFT.sol:Nomad",
        "label": "_balances",
        "offset": 0,
        "slot": "3",
        "type": "t_mapping(t_address,t_uint256)"
      },
      {
        "astId": 982,
        "contract": "contracts/tokens/NomadNFT.sol:Nomad",
        "label": "_tokenApprovals",
        "offset": 0,
        "slot": "4",
        "type": "t_mapping(t_uint256,t_address)"
      },
      {
        "astId": 988,
        "contract": "contracts/tokens/NomadNFT.sol:Nomad",
        "label": "_operatorApprovals",
        "offset": 0,
        "slot": "5",
        "type": "t_mapping(t_address,t_mapping(t_address,t_bool))"
      },
      {
        "astId": 2107,
        "contract": "contracts/tokens/NomadNFT.sol:Nomad",
        "label": "_tokenURIs",
        "offset": 0,
        "slot": "6",
        "type": "t_mapping(t_uint256,t_string_storage)"
      },
      {
        "astId": 8,
        "contract": "contracts/tokens/NomadNFT.sol:Nomad",
        "label": "_owner",
        "offset": 0,
        "slot": "7",
        "type": "t_address"
      },
      {
        "astId": 3972,
        "contract": "contracts/tokens/NomadNFT.sol:Nomad",
        "label": "lastTokenId",
        "offset": 0,
        "slot": "8",
        "type": "t_uint256"
      },
      {
        "astId": 3988,
        "contract": "contracts/tokens/NomadNFT.sol:Nomad",
        "label": "allowedTo",
        "offset": 0,
        "slot": "9",
        "type": "t_mapping(t_address,t_bool)"
      },
      {
        "astId": 3992,
        "contract": "contracts/tokens/NomadNFT.sol:Nomad",
        "label": "allowedFrom",
        "offset": 0,
        "slot": "10",
        "type": "t_mapping(t_address,t_bool)"
      }
    ],
    "types": {
      "t_address": {
        "encoding": "inplace",
        "label": "address",
        "numberOfBytes": "20"
      },
      "t_bool": {
        "encoding": "inplace",
        "label": "bool",
        "numberOfBytes": "1"
      },
      "t_mapping(t_address,t_bool)": {
        "encoding": "mapping",
        "key": "t_address",
        "label": "mapping(address => bool)",
        "numberOfBytes": "32",
        "value": "t_bool"
      },
      "t_mapping(t_address,t_mapping(t_address,t_bool))": {
        "encoding": "mapping",
        "key": "t_address",
        "label": "mapping(address => mapping(address => bool))",
        "numberOfBytes": "32",
        "value": "t_mapping(t_address,t_bool)"
      },
      "t_mapping(t_address,t_uint256)": {
        "encoding": "mapping",
        "key": "t_address",
        "label": "mapping(address => uint256)",
        "numberOfBytes": "32",
        "value": "t_uint256"
      },
      "t_mapping(t_uint256,t_address)": {
        "encoding": "mapping",
        "key": "t_uint256",
        "label": "mapping(uint256 => address)",
        "numberOfBytes": "32",
        "value": "t_address"
      },
      "t_mapping(t_uint256,t_string_storage)": {
        "encoding": "mapping",
        "key": "t_uint256",
        "label": "mapping(uint256 => string)",
        "numberOfBytes": "32",
        "value": "t_string_storage"
      },
      "t_string_storage": {
        "encoding": "bytes",
        "label": "string",
        "numberOfBytes": "32"
      },
      "t_uint256": {
        "encoding": "inplace",
        "label": "uint256",
        "numberOfBytes": "32"
      }
    }
  }
}